{
	"simplestorage.sol": {
		"simplestorage": {
			"abi": [
				{
					"anonymous": false,
					"inputs": [
						{
							"indexed": false,
							"internalType": "uint256",
							"name": "newfavoriteNumber",
							"type": "uint256"
						}
					],
					"name": "Numberupdated",
					"type": "event"
				},
				{
					"inputs": [],
					"name": "activateContract",
					"outputs": [],
					"stateMutability": "nonpayable",
					"type": "function"
				},
				{
					"inputs": [
						{
							"internalType": "string",
							"name": "_name",
							"type": "string"
						},
						{
							"internalType": "uint256",
							"name": "_favoriteNumber",
							"type": "uint256"
						}
					],
					"name": "addPerson",
					"outputs": [],
					"stateMutability": "nonpayable",
					"type": "function"
				},
				{
					"inputs": [
						{
							"internalType": "uint256",
							"name": "_number",
							"type": "uint256"
						}
					],
					"name": "addfavoriteNumber",
					"outputs": [],
					"stateMutability": "nonpayable",
					"type": "function"
				},
				{
					"inputs": [],
					"name": "callInternalFunction",
					"outputs": [
						{
							"internalType": "string",
							"name": "",
							"type": "string"
						}
					],
					"stateMutability": "pure",
					"type": "function"
				},
				{
					"inputs": [],
					"name": "deactivateContract",
					"outputs": [],
					"stateMutability": "nonpayable",
					"type": "function"
				},
				{
					"inputs": [],
					"name": "externalFunction",
					"outputs": [
						{
							"internalType": "string",
							"name": "",
							"type": "string"
						}
					],
					"stateMutability": "pure",
					"type": "function"
				},
				{
					"inputs": [
						{
							"internalType": "uint256",
							"name": "",
							"type": "uint256"
						}
					],
					"name": "favoriteNumbers",
					"outputs": [
						{
							"internalType": "uint256",
							"name": "",
							"type": "uint256"
						}
					],
					"stateMutability": "view",
					"type": "function"
				},
				{
					"inputs": [],
					"name": "getfavoriteNumber",
					"outputs": [
						{
							"internalType": "uint256",
							"name": "",
							"type": "uint256"
						}
					],
					"stateMutability": "view",
					"type": "function"
				},
				{
					"inputs": [
						{
							"internalType": "string",
							"name": "_name",
							"type": "string"
						}
					],
					"name": "getfavoriteNumberMap",
					"outputs": [
						{
							"internalType": "uint256",
							"name": "",
							"type": "uint256"
						}
					],
					"stateMutability": "view",
					"type": "function"
				},
				{
					"inputs": [],
					"name": "isActive",
					"outputs": [
						{
							"internalType": "bool",
							"name": "",
							"type": "bool"
						}
					],
					"stateMutability": "view",
					"type": "function"
				},
				{
					"inputs": [
						{
							"internalType": "uint256",
							"name": "_compareValue",
							"type": "uint256"
						}
					],
					"name": "isGreaterThan",
					"outputs": [
						{
							"internalType": "bool",
							"name": "",
							"type": "bool"
						}
					],
					"stateMutability": "view",
					"type": "function"
				},
				{
					"inputs": [
						{
							"internalType": "string",
							"name": "",
							"type": "string"
						}
					],
					"name": "nameTofavoriteNumber",
					"outputs": [
						{
							"internalType": "uint256",
							"name": "",
							"type": "uint256"
						}
					],
					"stateMutability": "view",
					"type": "function"
				},
				{
					"inputs": [
						{
							"internalType": "uint256",
							"name": "",
							"type": "uint256"
						}
					],
					"name": "people",
					"outputs": [
						{
							"internalType": "string",
							"name": "name",
							"type": "string"
						},
						{
							"internalType": "uint256",
							"name": "favoriteNumber",
							"type": "uint256"
						}
					],
					"stateMutability": "view",
					"type": "function"
				},
				{
					"inputs": [],
					"name": "returnNumbers",
					"outputs": [
						{
							"internalType": "uint256[]",
							"name": "",
							"type": "uint256[]"
						}
					],
					"stateMutability": "view",
					"type": "function"
				},
				{
					"inputs": [],
					"name": "state",
					"outputs": [
						{
							"internalType": "enum simplestorage.contractstate",
							"name": "",
							"type": "uint8"
						}
					],
					"stateMutability": "view",
					"type": "function"
				},
				{
					"inputs": [
						{
							"internalType": "uint256",
							"name": "_favoriteNumber",
							"type": "uint256"
						}
					],
					"name": "storeNumber",
					"outputs": [],
					"stateMutability": "nonpayable",
					"type": "function"
				},
				{
					"inputs": [],
					"name": "sumTofavoriteNumber",
					"outputs": [
						{
							"internalType": "uint256",
							"name": "",
							"type": "uint256"
						}
					],
					"stateMutability": "view",
					"type": "function"
				},
				{
					"inputs": [],
					"name": "testExternalFunction",
					"outputs": [
						{
							"internalType": "string",
							"name": "",
							"type": "string"
						}
					],
					"stateMutability": "view",
					"type": "function"
				},
				{
					"inputs": [
						{
							"internalType": "string",
							"name": "_name",
							"type": "string"
						}
					],
					"name": "updatdeName",
					"outputs": [
						{
							"internalType": "string",
							"name": "",
							"type": "string"
						}
					],
					"stateMutability": "pure",
					"type": "function"
				}
			],
			"devdoc": {
				"kind": "dev",
				"methods": {},
				"version": 1
			},
			"evm": {
				"assembly": "    /* \"simplestorage.sol\":57:3303  contract simplestorage {... */\n  mstore(0x40, 0x80)\n  callvalue\n  dup1\n  iszero\n  tag_1\n  jumpi\n  0x00\n  dup1\n  revert\ntag_1:\n  pop\n  dataSize(sub_0)\n  dup1\n  dataOffset(sub_0)\n  0x00\n  codecopy\n  0x00\n  return\nstop\n\nsub_0: assembly {\n        /* \"simplestorage.sol\":57:3303  contract simplestorage {... */\n      mstore(0x40, 0x80)\n      callvalue\n      dup1\n      iszero\n      tag_1\n      jumpi\n      0x00\n      dup1\n      revert\n    tag_1:\n      pop\n      jumpi(tag_2, lt(calldatasize, 0x04))\n      shr(0xe0, calldataload(0x00))\n      dup1\n      0x8701f8ca\n      gt\n      tag_22\n      jumpi\n      dup1\n      0xbb6a63fa\n      gt\n      tag_23\n      jumpi\n      dup1\n      0xbb6a63fa\n      eq\n      tag_17\n      jumpi\n      dup1\n      0xbca353be\n      eq\n      tag_18\n      jumpi\n      dup1\n      0xc19d93fb\n      eq\n      tag_19\n      jumpi\n      dup1\n      0xcb6a33f8\n      eq\n      tag_20\n      jumpi\n      dup1\n      0xe0819c9a\n      eq\n      tag_21\n      jumpi\n      jump(tag_2)\n    tag_23:\n      dup1\n      0x8701f8ca\n      eq\n      tag_12\n      jumpi\n      dup1\n      0x8fda356d\n      eq\n      tag_13\n      jumpi\n      dup1\n      0x99b8390a\n      eq\n      tag_14\n      jumpi\n      dup1\n      0x9e7a13ad\n      eq\n      tag_15\n      jumpi\n      dup1\n      0xb6339418\n      eq\n      tag_16\n      jumpi\n      jump(tag_2)\n    tag_22:\n      dup1\n      0x3a32b549\n      gt\n      tag_24\n      jumpi\n      dup1\n      0x3a32b549\n      eq\n      tag_7\n      jumpi\n      dup1\n      0x4d26512b\n      eq\n      tag_8\n      jumpi\n      dup1\n      0x4d3eac6e\n      eq\n      tag_9\n      jumpi\n      dup1\n      0x6f760f41\n      eq\n      tag_10\n      jumpi\n      dup1\n      0x7fc51178\n      eq\n      tag_11\n      jumpi\n      jump(tag_2)\n    tag_24:\n      dup1\n      0x03a43009\n      eq\n      tag_3\n      jumpi\n      dup1\n      0x157b95dd\n      eq\n      tag_4\n      jumpi\n      dup1\n      0x22f3e2d4\n      eq\n      tag_5\n      jumpi\n      dup1\n      0x29cd1d96\n      eq\n      tag_6\n      jumpi\n    tag_2:\n      0x00\n      dup1\n      revert\n        /* \"simplestorage.sol\":482:537  mapping (string => uint256) public nameTofavoriteNumber */\n    tag_3:\n      tag_25\n      0x04\n      dup1\n      calldatasize\n      sub\n      dup2\n      add\n      swap1\n      tag_26\n      swap2\n      swap1\n      tag_27\n      jump\t// in\n    tag_26:\n      tag_28\n      jump\t// in\n    tag_25:\n      mload(0x40)\n      tag_29\n      swap2\n      swap1\n      tag_30\n      jump\t// in\n    tag_29:\n      mload(0x40)\n      dup1\n      swap2\n      sub\n      swap1\n      return\n        /* \"simplestorage.sol\":3214:3298  function updatdeName(string memory _name) public pure returns(string memory){... */\n    tag_4:\n      tag_31\n      0x04\n      dup1\n      calldatasize\n      sub\n      dup2\n      add\n      swap1\n      tag_32\n      swap2\n      swap1\n      tag_27\n      jump\t// in\n    tag_32:\n      tag_33\n      jump\t// in\n    tag_31:\n      mload(0x40)\n      tag_34\n      swap2\n      swap1\n      tag_35\n      jump\t// in\n    tag_34:\n      mload(0x40)\n      dup1\n      swap2\n      sub\n      swap1\n      return\n        /* \"simplestorage.sol\":3109:3208  function isActive() public view returns (bool) {... */\n    tag_5:\n      tag_36\n      tag_37\n      jump\t// in\n    tag_36:\n      mload(0x40)\n      tag_38\n      swap2\n      swap1\n      tag_39\n      jump\t// in\n    tag_38:\n      mload(0x40)\n      dup1\n      swap2\n      sub\n      swap1\n      return\n        /* \"simplestorage.sol\":174:206  uint256[] public favoriteNumbers */\n    tag_6:\n      tag_40\n      0x04\n      dup1\n      calldatasize\n      sub\n      dup2\n      add\n      swap1\n      tag_41\n      swap2\n      swap1\n      tag_42\n      jump\t// in\n    tag_41:\n      tag_43\n      jump\t// in\n    tag_40:\n      mload(0x40)\n      tag_44\n      swap2\n      swap1\n      tag_30\n      jump\t// in\n    tag_44:\n      mload(0x40)\n      dup1\n      swap2\n      sub\n      swap1\n      return\n        /* \"simplestorage.sol\":2005:2180  function externalFunction()external pure returns(string memory) {... */\n    tag_7:\n      tag_45\n      tag_46\n      jump\t// in\n    tag_45:\n      mload(0x40)\n      tag_47\n      swap2\n      swap1\n      tag_35\n      jump\t// in\n    tag_47:\n      mload(0x40)\n      dup1\n      swap2\n      sub\n      swap1\n      return\n        /* \"simplestorage.sol\":1046:1143  function getfavoriteNumber() public view returns (uint256) {... */\n    tag_8:\n      tag_48\n      tag_49\n      jump\t// in\n    tag_48:\n      mload(0x40)\n      tag_50\n      swap2\n      swap1\n      tag_30\n      jump\t// in\n    tag_50:\n      mload(0x40)\n      dup1\n      swap2\n      sub\n      swap1\n      return\n        /* \"simplestorage.sol\":1359:1560  function sumTofavoriteNumber() public view returns (uint256) {... */\n    tag_9:\n      tag_51\n      tag_52\n      jump\t// in\n    tag_51:\n      mload(0x40)\n      tag_53\n      swap2\n      swap1\n      tag_30\n      jump\t// in\n    tag_53:\n      mload(0x40)\n      dup1\n      swap2\n      sub\n      swap1\n      return\n        /* \"simplestorage.sol\":2578:2764  function addPerson(string memory _name, uint256 _favoriteNumber) public {... */\n    tag_10:\n      tag_54\n      0x04\n      dup1\n      calldatasize\n      sub\n      dup2\n      add\n      swap1\n      tag_55\n      swap2\n      swap1\n      tag_56\n      jump\t// in\n    tag_55:\n      tag_57\n      jump\t// in\n    tag_54:\n      stop\n        /* \"simplestorage.sol\":2770:2903  function getfavoriteNumberMap (string memory _name) public view returns (uint256) {... */\n    tag_11:\n      tag_58\n      0x04\n      dup1\n      calldatasize\n      sub\n      dup2\n      add\n      swap1\n      tag_59\n      swap2\n      swap1\n      tag_27\n      jump\t// in\n    tag_59:\n      tag_60\n      jump\t// in\n    tag_58:\n      mload(0x40)\n      tag_61\n      swap2\n      swap1\n      tag_30\n      jump\t// in\n    tag_61:\n      mload(0x40)\n      dup1\n      swap2\n      sub\n      swap1\n      return\n        /* \"simplestorage.sol\":1834:1999  function callInternalFunction() public pure returns (string memory) {... */\n    tag_12:\n      tag_62\n      tag_63\n      jump\t// in\n    tag_62:\n      mload(0x40)\n      tag_64\n      swap2\n      swap1\n      tag_35\n      jump\t// in\n    tag_64:\n      mload(0x40)\n      dup1\n      swap2\n      sub\n      swap1\n      return\n        /* \"simplestorage.sol\":2933:3013  function activateContract() public {... */\n    tag_13:\n      tag_65\n      tag_66\n      jump\t// in\n    tag_65:\n      stop\n        /* \"simplestorage.sol\":2472:2572  function returnNumbers()public view returns(uint256[]memory) {... */\n    tag_14:\n      tag_67\n      tag_68\n      jump\t// in\n    tag_67:\n      mload(0x40)\n      tag_69\n      swap2\n      swap1\n      tag_70\n      jump\t// in\n    tag_69:\n      mload(0x40)\n      dup1\n      swap2\n      sub\n      swap1\n      return\n        /* \"simplestorage.sol\":453:475  Person[] public people */\n    tag_15:\n      tag_71\n      0x04\n      dup1\n      calldatasize\n      sub\n      dup2\n      add\n      swap1\n      tag_72\n      swap2\n      swap1\n      tag_42\n      jump\t// in\n    tag_72:\n      tag_73\n      jump\t// in\n    tag_71:\n      mload(0x40)\n      tag_74\n      swap3\n      swap2\n      swap1\n      tag_75\n      jump\t// in\n    tag_74:\n      mload(0x40)\n      dup1\n      swap2\n      sub\n      swap1\n      return\n        /* \"simplestorage.sol\":894:1040  function storeNumber(uint256 _favoriteNumber) public {... */\n    tag_16:\n      tag_76\n      0x04\n      dup1\n      calldatasize\n      sub\n      dup2\n      add\n      swap1\n      tag_77\n      swap2\n      swap1\n      tag_42\n      jump\t// in\n    tag_77:\n      tag_78\n      jump\t// in\n    tag_76:\n      stop\n        /* \"simplestorage.sol\":2369:2466  function addfavoriteNumber(uint256 _number) public {... */\n    tag_17:\n      tag_79\n      0x04\n      dup1\n      calldatasize\n      sub\n      dup2\n      add\n      swap1\n      tag_80\n      swap2\n      swap1\n      tag_42\n      jump\t// in\n    tag_80:\n      tag_81\n      jump\t// in\n    tag_79:\n      stop\n        /* \"simplestorage.sol\":3019:3103  function deactivateContract() public {... */\n    tag_18:\n      tag_82\n      tag_83\n      jump\t// in\n    tag_82:\n      stop\n        /* \"simplestorage.sol\":809:835  contractstate public state */\n    tag_19:\n      tag_84\n      tag_85\n      jump\t// in\n    tag_84:\n      mload(0x40)\n      tag_86\n      swap2\n      swap1\n      tag_87\n      jump\t// in\n    tag_86:\n      mload(0x40)\n      dup1\n      swap2\n      sub\n      swap1\n      return\n        /* \"simplestorage.sol\":1149:1353  function isGreaterThan(uint256 _compareValue) public view returns (bool) {... */\n    tag_20:\n      tag_88\n      0x04\n      dup1\n      calldatasize\n      sub\n      dup2\n      add\n      swap1\n      tag_89\n      swap2\n      swap1\n      tag_42\n      jump\t// in\n    tag_89:\n      tag_90\n      jump\t// in\n    tag_88:\n      mload(0x40)\n      tag_91\n      swap2\n      swap1\n      tag_39\n      jump\t// in\n    tag_91:\n      mload(0x40)\n      dup1\n      swap2\n      sub\n      swap1\n      return\n        /* \"simplestorage.sol\":2186:2363  function testExternalFunction() public view returns (string memory) {... */\n    tag_21:\n      tag_92\n      tag_93\n      jump\t// in\n    tag_92:\n      mload(0x40)\n      tag_94\n      swap2\n      swap1\n      tag_35\n      jump\t// in\n    tag_94:\n      mload(0x40)\n      dup1\n      swap2\n      sub\n      swap1\n      return\n        /* \"simplestorage.sol\":482:537  mapping (string => uint256) public nameTofavoriteNumber */\n    tag_28:\n      0x03\n      dup2\n      dup1\n      mload\n      0x20\n      dup2\n      add\n      dup3\n      add\n      dup1\n      mload\n      dup5\n      dup3\n      mstore\n      0x20\n      dup4\n      add\n      0x20\n      dup6\n      add\n      keccak256\n      dup2\n      dup4\n      mstore\n      dup1\n      swap6\n      pop\n      pop\n      pop\n      pop\n      pop\n      pop\n      0x00\n      swap2\n      pop\n      swap1\n      pop\n      sload\n      dup2\n      jump\t// out\n        /* \"simplestorage.sol\":3214:3298  function updatdeName(string memory _name) public pure returns(string memory){... */\n    tag_33:\n        /* \"simplestorage.sol\":3276:3289  string memory */\n      0x60\n        /* \"simplestorage.sol\":3214:3298  function updatdeName(string memory _name) public pure returns(string memory){... */\n      swap2\n      swap1\n      pop\n      jump\t// out\n        /* \"simplestorage.sol\":3109:3208  function isActive() public view returns (bool) {... */\n    tag_37:\n        /* \"simplestorage.sol\":3150:3154  bool */\n      0x00\n        /* \"simplestorage.sol\":3181:3201  contractstate.Active */\n      dup1\n        /* \"simplestorage.sol\":3173:3201  state ==contractstate.Active */\n      0x01\n      dup2\n      gt\n      iszero\n      tag_97\n      jumpi\n      tag_98\n      tag_99\n      jump\t// in\n    tag_98:\n    tag_97:\n        /* \"simplestorage.sol\":3173:3178  state */\n      0x04\n      0x00\n      swap1\n      sload\n      swap1\n      0x0100\n      exp\n      swap1\n      div\n      0xff\n      and\n        /* \"simplestorage.sol\":3173:3201  state ==contractstate.Active */\n      0x01\n      dup2\n      gt\n      iszero\n      tag_100\n      jumpi\n      tag_101\n      tag_99\n      jump\t// in\n    tag_101:\n    tag_100:\n      eq\n        /* \"simplestorage.sol\":3166:3201  return state ==contractstate.Active */\n      swap1\n      pop\n        /* \"simplestorage.sol\":3109:3208  function isActive() public view returns (bool) {... */\n      swap1\n      jump\t// out\n        /* \"simplestorage.sol\":174:206  uint256[] public favoriteNumbers */\n    tag_43:\n      0x01\n      dup2\n      dup2\n      sload\n      dup2\n      lt\n      tag_102\n      jumpi\n      0x00\n      dup1\n      revert\n    tag_102:\n      swap1\n      0x00\n      mstore\n      keccak256(0x00, 0x20)\n      add\n      0x00\n      swap2\n      pop\n      swap1\n      pop\n      sload\n      dup2\n      jump\t// out\n        /* \"simplestorage.sol\":2005:2180  function externalFunction()external pure returns(string memory) {... */\n    tag_46:\n        /* \"simplestorage.sol\":2054:2067  string memory */\n      0x60\n        /* \"simplestorage.sol\":2079:2116  return \"this is an external function\" */\n      mload(0x40)\n      dup1\n      0x40\n      add\n      0x40\n      mstore\n      dup1\n      0x1c\n      dup2\n      mstore\n      0x20\n      add\n      0x7468697320697320616e2065787465726e616c2066756e6374696f6e00000000\n      dup2\n      mstore\n      pop\n      swap1\n      pop\n        /* \"simplestorage.sol\":2005:2180  function externalFunction()external pure returns(string memory) {... */\n      swap1\n      jump\t// out\n        /* \"simplestorage.sol\":1046:1143  function getfavoriteNumber() public view returns (uint256) {... */\n    tag_49:\n        /* \"simplestorage.sol\":1096:1103  uint256 */\n      0x00\n        /* \"simplestorage.sol\":1122:1136  favoriteNumber */\n      dup1\n      sload\n        /* \"simplestorage.sol\":1115:1136  return favoriteNumber */\n      swap1\n      pop\n        /* \"simplestorage.sol\":1046:1143  function getfavoriteNumber() public view returns (uint256) {... */\n      swap1\n      jump\t// out\n        /* \"simplestorage.sol\":1359:1560  function sumTofavoriteNumber() public view returns (uint256) {... */\n    tag_52:\n        /* \"simplestorage.sol\":1411:1418  uint256 */\n      0x00\n        /* \"simplestorage.sol\":1430:1441  uint256 sum */\n      dup1\n        /* \"simplestorage.sol\":1444:1445  0 */\n      0x00\n        /* \"simplestorage.sol\":1430:1445  uint256 sum = 0 */\n      swap1\n      pop\n        /* \"simplestorage.sol\":1460:1469  uint256 i */\n      0x00\n        /* \"simplestorage.sol\":1472:1473  1 */\n      0x01\n        /* \"simplestorage.sol\":1460:1473  uint256 i = 1 */\n      swap1\n      pop\n        /* \"simplestorage.sol\":1455:1534  for (uint256 i = 1; i <= favoriteNumber; i++) {... */\n    tag_107:\n        /* \"simplestorage.sol\":1480:1494  favoriteNumber */\n      sload(0x00)\n        /* \"simplestorage.sol\":1475:1476  i */\n      dup2\n        /* \"simplestorage.sol\":1475:1494  i <= favoriteNumber */\n      gt\n        /* \"simplestorage.sol\":1455:1534  for (uint256 i = 1; i <= favoriteNumber; i++) {... */\n      tag_108\n      jumpi\n        /* \"simplestorage.sol\":1522:1523  i */\n      dup1\n        /* \"simplestorage.sol\":1515:1523  sum += i */\n      dup3\n      tag_110\n      swap2\n      swap1\n      tag_111\n      jump\t// in\n    tag_110:\n      swap2\n      pop\n        /* \"simplestorage.sol\":1496:1499  i++ */\n      dup1\n      dup1\n      tag_112\n      swap1\n      tag_113\n      jump\t// in\n    tag_112:\n      swap2\n      pop\n      pop\n        /* \"simplestorage.sol\":1455:1534  for (uint256 i = 1; i <= favoriteNumber; i++) {... */\n      jump(tag_107)\n    tag_108:\n      pop\n        /* \"simplestorage.sol\":1550:1553  sum */\n      dup1\n        /* \"simplestorage.sol\":1543:1553  return sum */\n      swap2\n      pop\n      pop\n        /* \"simplestorage.sol\":1359:1560  function sumTofavoriteNumber() public view returns (uint256) {... */\n      swap1\n      jump\t// out\n        /* \"simplestorage.sol\":2578:2764  function addPerson(string memory _name, uint256 _favoriteNumber) public {... */\n    tag_57:\n        /* \"simplestorage.sol\":2660:2666  people */\n      0x02\n        /* \"simplestorage.sol\":2672:2701  Person(_name,_favoriteNumber) */\n      mload(0x40)\n      dup1\n      0x40\n      add\n      0x40\n      mstore\n      dup1\n        /* \"simplestorage.sol\":2679:2684  _name */\n      dup5\n        /* \"simplestorage.sol\":2672:2701  Person(_name,_favoriteNumber) */\n      dup2\n      mstore\n      0x20\n      add\n        /* \"simplestorage.sol\":2685:2700  _favoriteNumber */\n      dup4\n        /* \"simplestorage.sol\":2672:2701  Person(_name,_favoriteNumber) */\n      dup2\n      mstore\n      pop\n        /* \"simplestorage.sol\":2660:2702  people.push(Person(_name,_favoriteNumber)) */\n      swap1\n      dup1\n      0x01\n      dup2\n      sload\n      add\n      dup1\n      dup3\n      sstore\n      dup1\n      swap2\n      pop\n      pop\n      0x01\n      swap1\n      sub\n      swap1\n      0x00\n      mstore\n      keccak256(0x00, 0x20)\n      swap1\n      0x02\n      mul\n      add\n      0x00\n      swap1\n      swap2\n      swap1\n      swap2\n      swap1\n      swap2\n      pop\n      0x00\n      dup3\n      add\n      mload\n      dup2\n      0x00\n      add\n      swap1\n      dup2\n      tag_116\n      swap2\n      swap1\n      tag_117\n      jump\t// in\n    tag_116:\n      pop\n      0x20\n      dup3\n      add\n      mload\n      dup2\n      0x01\n      add\n      sstore\n      pop\n      pop\n        /* \"simplestorage.sol\":2742:2757  _favoriteNumber */\n      dup1\n        /* \"simplestorage.sol\":2712:2732  nameTofavoriteNumber */\n      0x03\n        /* \"simplestorage.sol\":2733:2738  _name */\n      dup4\n        /* \"simplestorage.sol\":2712:2739  nameTofavoriteNumber[_name] */\n      mload(0x40)\n      tag_118\n      swap2\n      swap1\n      tag_119\n      jump\t// in\n    tag_118:\n      swap1\n      dup2\n      mstore\n      0x20\n      add\n      mload(0x40)\n      dup1\n      swap2\n      sub\n      swap1\n      keccak256\n        /* \"simplestorage.sol\":2712:2757  nameTofavoriteNumber[_name] = _favoriteNumber */\n      dup2\n      swap1\n      sstore\n      pop\n        /* \"simplestorage.sol\":2578:2764  function addPerson(string memory _name, uint256 _favoriteNumber) public {... */\n      pop\n      pop\n      jump\t// out\n        /* \"simplestorage.sol\":2770:2903  function getfavoriteNumberMap (string memory _name) public view returns (uint256) {... */\n    tag_60:\n        /* \"simplestorage.sol\":2843:2850  uint256 */\n      0x00\n        /* \"simplestorage.sol\":2869:2889  nameTofavoriteNumber */\n      0x03\n        /* \"simplestorage.sol\":2890:2895  _name */\n      dup3\n        /* \"simplestorage.sol\":2869:2896  nameTofavoriteNumber[_name] */\n      mload(0x40)\n      tag_121\n      swap2\n      swap1\n      tag_119\n      jump\t// in\n    tag_121:\n      swap1\n      dup2\n      mstore\n      0x20\n      add\n      mload(0x40)\n      dup1\n      swap2\n      sub\n      swap1\n      keccak256\n      sload\n        /* \"simplestorage.sol\":2862:2896  return nameTofavoriteNumber[_name] */\n      swap1\n      pop\n        /* \"simplestorage.sol\":2770:2903  function getfavoriteNumberMap (string memory _name) public view returns (uint256) {... */\n      swap2\n      swap1\n      pop\n      jump\t// out\n        /* \"simplestorage.sol\":1834:1999  function callInternalFunction() public pure returns (string memory) {... */\n    tag_63:\n        /* \"simplestorage.sol\":1887:1900  string memory */\n      0x60\n        /* \"simplestorage.sol\":1919:1937  internalFunction() */\n      tag_123\n        /* \"simplestorage.sol\":1919:1935  internalFunction */\n      tag_124\n        /* \"simplestorage.sol\":1919:1937  internalFunction() */\n      jump\t// in\n    tag_123:\n        /* \"simplestorage.sol\":1912:1937  return internalFunction() */\n      swap1\n      pop\n        /* \"simplestorage.sol\":1834:1999  function callInternalFunction() public pure returns (string memory) {... */\n      swap1\n      jump\t// out\n        /* \"simplestorage.sol\":2933:3013  function activateContract() public {... */\n    tag_66:\n        /* \"simplestorage.sol\":2986:3006  contractstate.Active */\n      0x00\n        /* \"simplestorage.sol\":2978:2983  state */\n      0x04\n      0x00\n        /* \"simplestorage.sol\":2978:3006  state = contractstate.Active */\n      0x0100\n      exp\n      dup2\n      sload\n      dup2\n      0xff\n      mul\n      not\n      and\n      swap1\n      dup4\n      0x01\n      dup2\n      gt\n      iszero\n      tag_126\n      jumpi\n      tag_127\n      tag_99\n      jump\t// in\n    tag_127:\n    tag_126:\n      mul\n      or\n      swap1\n      sstore\n      pop\n        /* \"simplestorage.sol\":2933:3013  function activateContract() public {... */\n      jump\t// out\n        /* \"simplestorage.sol\":2472:2572  function returnNumbers()public view returns(uint256[]memory) {... */\n    tag_68:\n        /* \"simplestorage.sol\":2516:2531  uint256[]memory */\n      0x60\n        /* \"simplestorage.sol\":2550:2565  favoriteNumbers */\n      0x01\n        /* \"simplestorage.sol\":2543:2565  return favoriteNumbers */\n      dup1\n      sload\n      dup1\n      0x20\n      mul\n      0x20\n      add\n      mload(0x40)\n      swap1\n      dup2\n      add\n      0x40\n      mstore\n      dup1\n      swap3\n      swap2\n      swap1\n      dup2\n      dup2\n      mstore\n      0x20\n      add\n      dup3\n      dup1\n      sload\n      dup1\n      iszero\n      tag_129\n      jumpi\n      0x20\n      mul\n      dup3\n      add\n      swap2\n      swap1\n      0x00\n      mstore\n      keccak256(0x00, 0x20)\n      swap1\n    tag_130:\n      dup2\n      sload\n      dup2\n      mstore\n      0x20\n      add\n      swap1\n      0x01\n      add\n      swap1\n      dup1\n      dup4\n      gt\n      tag_130\n      jumpi\n    tag_129:\n      pop\n      pop\n      pop\n      pop\n      pop\n      swap1\n      pop\n        /* \"simplestorage.sol\":2472:2572  function returnNumbers()public view returns(uint256[]memory) {... */\n      swap1\n      jump\t// out\n        /* \"simplestorage.sol\":453:475  Person[] public people */\n    tag_73:\n      0x02\n      dup2\n      dup2\n      sload\n      dup2\n      lt\n      tag_131\n      jumpi\n      0x00\n      dup1\n      revert\n    tag_131:\n      swap1\n      0x00\n      mstore\n      keccak256(0x00, 0x20)\n      swap1\n      0x02\n      mul\n      add\n      0x00\n      swap2\n      pop\n      swap1\n      pop\n      dup1\n      0x00\n      add\n      dup1\n      sload\n      tag_133\n      swap1\n      tag_134\n      jump\t// in\n    tag_133:\n      dup1\n      0x1f\n      add\n      0x20\n      dup1\n      swap2\n      div\n      mul\n      0x20\n      add\n      mload(0x40)\n      swap1\n      dup2\n      add\n      0x40\n      mstore\n      dup1\n      swap3\n      swap2\n      swap1\n      dup2\n      dup2\n      mstore\n      0x20\n      add\n      dup3\n      dup1\n      sload\n      tag_135\n      swap1\n      tag_134\n      jump\t// in\n    tag_135:\n      dup1\n      iszero\n      tag_136\n      jumpi\n      dup1\n      0x1f\n      lt\n      tag_137\n      jumpi\n      0x0100\n      dup1\n      dup4\n      sload\n      div\n      mul\n      dup4\n      mstore\n      swap2\n      0x20\n      add\n      swap2\n      jump(tag_136)\n    tag_137:\n      dup3\n      add\n      swap2\n      swap1\n      0x00\n      mstore\n      keccak256(0x00, 0x20)\n      swap1\n    tag_138:\n      dup2\n      sload\n      dup2\n      mstore\n      swap1\n      0x01\n      add\n      swap1\n      0x20\n      add\n      dup1\n      dup4\n      gt\n      tag_138\n      jumpi\n      dup3\n      swap1\n      sub\n      0x1f\n      and\n      dup3\n      add\n      swap2\n    tag_136:\n      pop\n      pop\n      pop\n      pop\n      pop\n      swap1\n      dup1\n      0x01\n      add\n      sload\n      swap1\n      pop\n      dup3\n      jump\t// out\n        /* \"simplestorage.sol\":894:1040  function storeNumber(uint256 _favoriteNumber) public {... */\n    tag_78:\n        /* \"simplestorage.sol\":974:989  _favoriteNumber */\n      dup1\n        /* \"simplestorage.sol\":957:971  favoriteNumber */\n      0x00\n        /* \"simplestorage.sol\":957:989  favoriteNumber = _favoriteNumber */\n      dup2\n      swap1\n      sstore\n      pop\n        /* \"simplestorage.sol\":1004:1033  Numberupdated(favoriteNumber) */\n      0xd3901bd7fefa1987685060dfbfcee387cec06b0e5ef5e0062c1f9aebf38ea344\n        /* \"simplestorage.sol\":1018:1032  favoriteNumber */\n      sload(0x00)\n        /* \"simplestorage.sol\":1004:1033  Numberupdated(favoriteNumber) */\n      mload(0x40)\n      tag_140\n      swap2\n      swap1\n      tag_30\n      jump\t// in\n    tag_140:\n      mload(0x40)\n      dup1\n      swap2\n      sub\n      swap1\n      log1\n        /* \"simplestorage.sol\":894:1040  function storeNumber(uint256 _favoriteNumber) public {... */\n      pop\n      jump\t// out\n        /* \"simplestorage.sol\":2369:2466  function addfavoriteNumber(uint256 _number) public {... */\n    tag_81:\n        /* \"simplestorage.sol\":2430:2445  favoriteNumbers */\n      0x01\n        /* \"simplestorage.sol\":2451:2458  _number */\n      dup2\n        /* \"simplestorage.sol\":2430:2459  favoriteNumbers.push(_number) */\n      swap1\n      dup1\n      0x01\n      dup2\n      sload\n      add\n      dup1\n      dup3\n      sstore\n      dup1\n      swap2\n      pop\n      pop\n      0x01\n      swap1\n      sub\n      swap1\n      0x00\n      mstore\n      keccak256(0x00, 0x20)\n      add\n      0x00\n      swap1\n      swap2\n      swap1\n      swap2\n      swap1\n      swap2\n      pop\n      sstore\n        /* \"simplestorage.sol\":2369:2466  function addfavoriteNumber(uint256 _number) public {... */\n      pop\n      jump\t// out\n        /* \"simplestorage.sol\":3019:3103  function deactivateContract() public {... */\n    tag_83:\n        /* \"simplestorage.sol\":3074:3096  contractstate.Inactive */\n      0x01\n        /* \"simplestorage.sol\":3066:3071  state */\n      0x04\n      0x00\n        /* \"simplestorage.sol\":3066:3096  state = contractstate.Inactive */\n      0x0100\n      exp\n      dup2\n      sload\n      dup2\n      0xff\n      mul\n      not\n      and\n      swap1\n      dup4\n      0x01\n      dup2\n      gt\n      iszero\n      tag_144\n      jumpi\n      tag_145\n      tag_99\n      jump\t// in\n    tag_145:\n    tag_144:\n      mul\n      or\n      swap1\n      sstore\n      pop\n        /* \"simplestorage.sol\":3019:3103  function deactivateContract() public {... */\n      jump\t// out\n        /* \"simplestorage.sol\":809:835  contractstate public state */\n    tag_85:\n      0x04\n      0x00\n      swap1\n      sload\n      swap1\n      0x0100\n      exp\n      swap1\n      div\n      0xff\n      and\n      dup2\n      jump\t// out\n        /* \"simplestorage.sol\":1149:1353  function isGreaterThan(uint256 _compareValue) public view returns (bool) {... */\n    tag_90:\n        /* \"simplestorage.sol\":1216:1220  bool */\n      0x00\n        /* \"simplestorage.sol\":1253:1266  _compareValue */\n      dup2\n        /* \"simplestorage.sol\":1236:1250  favoriteNumber */\n      sload(0x00)\n        /* \"simplestorage.sol\":1236:1266  favoriteNumber > _compareValue */\n      gt\n        /* \"simplestorage.sol\":1232:1347  if (favoriteNumber > _compareValue) {... */\n      iszero\n      tag_147\n      jumpi\n        /* \"simplestorage.sol\":1289:1293  true */\n      0x01\n        /* \"simplestorage.sol\":1282:1293  return true */\n      swap1\n      pop\n      jump(tag_146)\n        /* \"simplestorage.sol\":1232:1347  if (favoriteNumber > _compareValue) {... */\n    tag_147:\n        /* \"simplestorage.sol\":1331:1336  false */\n      0x00\n        /* \"simplestorage.sol\":1324:1336  return false */\n      swap1\n      pop\n        /* \"simplestorage.sol\":1149:1353  function isGreaterThan(uint256 _compareValue) public view returns (bool) {... */\n    tag_146:\n      swap2\n      swap1\n      pop\n      jump\t// out\n        /* \"simplestorage.sol\":2186:2363  function testExternalFunction() public view returns (string memory) {... */\n    tag_93:\n        /* \"simplestorage.sol\":2239:2252  string memory */\n      0x60\n        /* \"simplestorage.sol\":2271:2275  this */\n      address\n        /* \"simplestorage.sol\":2271:2292  this.externalFunction */\n      0xffffffffffffffffffffffffffffffffffffffff\n      and\n      0x3a32b549\n        /* \"simplestorage.sol\":2271:2294  this.externalFunction() */\n      mload(0x40)\n      dup2\n      0xffffffff\n      and\n      0xe0\n      shl\n      dup2\n      mstore\n      0x04\n      add\n      0x00\n      mload(0x40)\n      dup1\n      dup4\n      sub\n      dup2\n      dup7\n      gas\n      staticcall\n      iszero\n      dup1\n      iszero\n      tag_151\n      jumpi\n      returndatasize\n      0x00\n      dup1\n      returndatacopy\n      revert(0x00, returndatasize)\n    tag_151:\n      pop\n      pop\n      pop\n      pop\n      mload(0x40)\n      returndatasize\n      0x00\n      dup3\n      returndatacopy\n      returndatasize\n      not(0x1f)\n      0x1f\n      dup3\n      add\n      and\n      dup3\n      add\n      dup1\n      0x40\n      mstore\n      pop\n      dup2\n      add\n      swap1\n      tag_152\n      swap2\n      swap1\n      tag_153\n      jump\t// in\n    tag_152:\n        /* \"simplestorage.sol\":2264:2294  return this.externalFunction() */\n      swap1\n      pop\n        /* \"simplestorage.sol\":2186:2363  function testExternalFunction() public view returns (string memory) {... */\n      swap1\n      jump\t// out\n        /* \"simplestorage.sol\":1566:1752  function internalFunction()internal pure returns(string memory) {... */\n    tag_124:\n        /* \"simplestorage.sol\":1615:1628  string memory */\n      0x60\n        /* \"simplestorage.sol\":1640:1677  return \"this is an internal function\" */\n      mload(0x40)\n      dup1\n      0x40\n      add\n      0x40\n      mstore\n      dup1\n      0x1c\n      dup2\n      mstore\n      0x20\n      add\n      0x7468697320697320616e20696e7465726e616c2066756e6374696f6e00000000\n      dup2\n      mstore\n      pop\n      swap1\n      pop\n        /* \"simplestorage.sol\":1566:1752  function internalFunction()internal pure returns(string memory) {... */\n      swap1\n      jump\t// out\n        /* \"#utility.yul\":7:82   */\n    tag_155:\n        /* \"#utility.yul\":40:46   */\n      0x00\n        /* \"#utility.yul\":73:75   */\n      0x40\n        /* \"#utility.yul\":67:76   */\n      mload\n        /* \"#utility.yul\":57:76   */\n      swap1\n      pop\n        /* \"#utility.yul\":7:82   */\n      swap1\n      jump\t// out\n        /* \"#utility.yul\":88:205   */\n    tag_156:\n        /* \"#utility.yul\":197:198   */\n      0x00\n        /* \"#utility.yul\":194:195   */\n      dup1\n        /* \"#utility.yul\":187:199   */\n      revert\n        /* \"#utility.yul\":211:328   */\n    tag_157:\n        /* \"#utility.yul\":320:321   */\n      0x00\n        /* \"#utility.yul\":317:318   */\n      dup1\n        /* \"#utility.yul\":310:322   */\n      revert\n        /* \"#utility.yul\":334:451   */\n    tag_158:\n        /* \"#utility.yul\":443:444   */\n      0x00\n        /* \"#utility.yul\":440:441   */\n      dup1\n        /* \"#utility.yul\":433:445   */\n      revert\n        /* \"#utility.yul\":457:574   */\n    tag_159:\n        /* \"#utility.yul\":566:567   */\n      0x00\n        /* \"#utility.yul\":563:564   */\n      dup1\n        /* \"#utility.yul\":556:568   */\n      revert\n        /* \"#utility.yul\":580:682   */\n    tag_160:\n        /* \"#utility.yul\":621:627   */\n      0x00\n        /* \"#utility.yul\":672:674   */\n      0x1f\n        /* \"#utility.yul\":668:675   */\n      not\n        /* \"#utility.yul\":663:665   */\n      0x1f\n        /* \"#utility.yul\":656:661   */\n      dup4\n        /* \"#utility.yul\":652:666   */\n      add\n        /* \"#utility.yul\":648:676   */\n      and\n        /* \"#utility.yul\":638:676   */\n      swap1\n      pop\n        /* \"#utility.yul\":580:682   */\n      swap2\n      swap1\n      pop\n      jump\t// out\n        /* \"#utility.yul\":688:868   */\n    tag_161:\n        /* \"#utility.yul\":736:813   */\n      0x4e487b7100000000000000000000000000000000000000000000000000000000\n        /* \"#utility.yul\":733:734   */\n      0x00\n        /* \"#utility.yul\":726:814   */\n      mstore\n        /* \"#utility.yul\":833:837   */\n      0x41\n        /* \"#utility.yul\":830:831   */\n      0x04\n        /* \"#utility.yul\":823:838   */\n      mstore\n        /* \"#utility.yul\":857:861   */\n      0x24\n        /* \"#utility.yul\":854:855   */\n      0x00\n        /* \"#utility.yul\":847:862   */\n      revert\n        /* \"#utility.yul\":874:1155   */\n    tag_162:\n        /* \"#utility.yul\":957:984   */\n      tag_219\n        /* \"#utility.yul\":979:983   */\n      dup3\n        /* \"#utility.yul\":957:984   */\n      tag_160\n      jump\t// in\n    tag_219:\n        /* \"#utility.yul\":949:955   */\n      dup2\n        /* \"#utility.yul\":945:985   */\n      add\n        /* \"#utility.yul\":1087:1093   */\n      dup2\n        /* \"#utility.yul\":1075:1085   */\n      dup2\n        /* \"#utility.yul\":1072:1094   */\n      lt\n        /* \"#utility.yul\":1051:1069   */\n      0xffffffffffffffff\n        /* \"#utility.yul\":1039:1049   */\n      dup3\n        /* \"#utility.yul\":1036:1070   */\n      gt\n        /* \"#utility.yul\":1033:1095   */\n      or\n        /* \"#utility.yul\":1030:1118   */\n      iszero\n      tag_220\n      jumpi\n        /* \"#utility.yul\":1098:1116   */\n      tag_221\n      tag_161\n      jump\t// in\n    tag_221:\n        /* \"#utility.yul\":1030:1118   */\n    tag_220:\n        /* \"#utility.yul\":1138:1148   */\n      dup1\n        /* \"#utility.yul\":1134:1136   */\n      0x40\n        /* \"#utility.yul\":1127:1149   */\n      mstore\n        /* \"#utility.yul\":917:1155   */\n      pop\n        /* \"#utility.yul\":874:1155   */\n      pop\n      pop\n      jump\t// out\n        /* \"#utility.yul\":1161:1290   */\n    tag_163:\n        /* \"#utility.yul\":1195:1201   */\n      0x00\n        /* \"#utility.yul\":1222:1242   */\n      tag_223\n      tag_155\n      jump\t// in\n    tag_223:\n        /* \"#utility.yul\":1212:1242   */\n      swap1\n      pop\n        /* \"#utility.yul\":1251:1284   */\n      tag_224\n        /* \"#utility.yul\":1279:1283   */\n      dup3\n        /* \"#utility.yul\":1271:1277   */\n      dup3\n        /* \"#utility.yul\":1251:1284   */\n      tag_162\n      jump\t// in\n    tag_224:\n        /* \"#utility.yul\":1161:1290   */\n      swap2\n      swap1\n      pop\n      jump\t// out\n        /* \"#utility.yul\":1296:1604   */\n    tag_164:\n        /* \"#utility.yul\":1358:1362   */\n      0x00\n        /* \"#utility.yul\":1448:1466   */\n      0xffffffffffffffff\n        /* \"#utility.yul\":1440:1446   */\n      dup3\n        /* \"#utility.yul\":1437:1467   */\n      gt\n        /* \"#utility.yul\":1434:1490   */\n      iszero\n      tag_226\n      jumpi\n        /* \"#utility.yul\":1470:1488   */\n      tag_227\n      tag_161\n      jump\t// in\n    tag_227:\n        /* \"#utility.yul\":1434:1490   */\n    tag_226:\n        /* \"#utility.yul\":1508:1537   */\n      tag_228\n        /* \"#utility.yul\":1530:1536   */\n      dup3\n        /* \"#utility.yul\":1508:1537   */\n      tag_160\n      jump\t// in\n    tag_228:\n        /* \"#utility.yul\":1500:1537   */\n      swap1\n      pop\n        /* \"#utility.yul\":1592:1596   */\n      0x20\n        /* \"#utility.yul\":1586:1590   */\n      dup2\n        /* \"#utility.yul\":1582:1597   */\n      add\n        /* \"#utility.yul\":1574:1597   */\n      swap1\n      pop\n        /* \"#utility.yul\":1296:1604   */\n      swap2\n      swap1\n      pop\n      jump\t// out\n        /* \"#utility.yul\":1610:1758   */\n    tag_165:\n        /* \"#utility.yul\":1708:1714   */\n      dup3\n        /* \"#utility.yul\":1703:1706   */\n      dup2\n        /* \"#utility.yul\":1698:1701   */\n      dup4\n        /* \"#utility.yul\":1685:1715   */\n      calldatacopy\n        /* \"#utility.yul\":1749:1750   */\n      0x00\n        /* \"#utility.yul\":1740:1746   */\n      dup4\n        /* \"#utility.yul\":1735:1738   */\n      dup4\n        /* \"#utility.yul\":1731:1747   */\n      add\n        /* \"#utility.yul\":1724:1751   */\n      mstore\n        /* \"#utility.yul\":1610:1758   */\n      pop\n      pop\n      pop\n      jump\t// out\n        /* \"#utility.yul\":1764:2189   */\n    tag_166:\n        /* \"#utility.yul\":1842:1847   */\n      0x00\n        /* \"#utility.yul\":1867:1933   */\n      tag_231\n        /* \"#utility.yul\":1883:1932   */\n      tag_232\n        /* \"#utility.yul\":1925:1931   */\n      dup5\n        /* \"#utility.yul\":1883:1932   */\n      tag_164\n      jump\t// in\n    tag_232:\n        /* \"#utility.yul\":1867:1933   */\n      tag_163\n      jump\t// in\n    tag_231:\n        /* \"#utility.yul\":1858:1933   */\n      swap1\n      pop\n        /* \"#utility.yul\":1956:1962   */\n      dup3\n        /* \"#utility.yul\":1949:1954   */\n      dup2\n        /* \"#utility.yul\":1942:1963   */\n      mstore\n        /* \"#utility.yul\":1994:1998   */\n      0x20\n        /* \"#utility.yul\":1987:1992   */\n      dup2\n        /* \"#utility.yul\":1983:1999   */\n      add\n        /* \"#utility.yul\":2032:2035   */\n      dup5\n        /* \"#utility.yul\":2023:2029   */\n      dup5\n        /* \"#utility.yul\":2018:2021   */\n      dup5\n        /* \"#utility.yul\":2014:2030   */\n      add\n        /* \"#utility.yul\":2011:2036   */\n      gt\n        /* \"#utility.yul\":2008:2120   */\n      iszero\n      tag_233\n      jumpi\n        /* \"#utility.yul\":2039:2118   */\n      tag_234\n      tag_159\n      jump\t// in\n    tag_234:\n        /* \"#utility.yul\":2008:2120   */\n    tag_233:\n        /* \"#utility.yul\":2129:2183   */\n      tag_235\n        /* \"#utility.yul\":2176:2182   */\n      dup5\n        /* \"#utility.yul\":2171:2174   */\n      dup3\n        /* \"#utility.yul\":2166:2169   */\n      dup6\n        /* \"#utility.yul\":2129:2183   */\n      tag_165\n      jump\t// in\n    tag_235:\n        /* \"#utility.yul\":1848:2189   */\n      pop\n        /* \"#utility.yul\":1764:2189   */\n      swap4\n      swap3\n      pop\n      pop\n      pop\n      jump\t// out\n        /* \"#utility.yul\":2209:2549   */\n    tag_167:\n        /* \"#utility.yul\":2265:2270   */\n      0x00\n        /* \"#utility.yul\":2314:2317   */\n      dup3\n        /* \"#utility.yul\":2307:2311   */\n      0x1f\n        /* \"#utility.yul\":2299:2305   */\n      dup4\n        /* \"#utility.yul\":2295:2312   */\n      add\n        /* \"#utility.yul\":2291:2318   */\n      slt\n        /* \"#utility.yul\":2281:2403   */\n      tag_237\n      jumpi\n        /* \"#utility.yul\":2322:2401   */\n      tag_238\n      tag_158\n      jump\t// in\n    tag_238:\n        /* \"#utility.yul\":2281:2403   */\n    tag_237:\n        /* \"#utility.yul\":2439:2445   */\n      dup2\n        /* \"#utility.yul\":2426:2446   */\n      calldataload\n        /* \"#utility.yul\":2464:2543   */\n      tag_239\n        /* \"#utility.yul\":2539:2542   */\n      dup5\n        /* \"#utility.yul\":2531:2537   */\n      dup3\n        /* \"#utility.yul\":2524:2528   */\n      0x20\n        /* \"#utility.yul\":2516:2522   */\n      dup7\n        /* \"#utility.yul\":2512:2529   */\n      add\n        /* \"#utility.yul\":2464:2543   */\n      tag_166\n      jump\t// in\n    tag_239:\n        /* \"#utility.yul\":2455:2543   */\n      swap2\n      pop\n        /* \"#utility.yul\":2271:2549   */\n      pop\n        /* \"#utility.yul\":2209:2549   */\n      swap3\n      swap2\n      pop\n      pop\n      jump\t// out\n        /* \"#utility.yul\":2555:3064   */\n    tag_27:\n        /* \"#utility.yul\":2624:2630   */\n      0x00\n        /* \"#utility.yul\":2673:2675   */\n      0x20\n        /* \"#utility.yul\":2661:2670   */\n      dup3\n        /* \"#utility.yul\":2652:2659   */\n      dup5\n        /* \"#utility.yul\":2648:2671   */\n      sub\n        /* \"#utility.yul\":2644:2676   */\n      slt\n        /* \"#utility.yul\":2641:2760   */\n      iszero\n      tag_241\n      jumpi\n        /* \"#utility.yul\":2679:2758   */\n      tag_242\n      tag_156\n      jump\t// in\n    tag_242:\n        /* \"#utility.yul\":2641:2760   */\n    tag_241:\n        /* \"#utility.yul\":2827:2828   */\n      0x00\n        /* \"#utility.yul\":2816:2825   */\n      dup3\n        /* \"#utility.yul\":2812:2829   */\n      add\n        /* \"#utility.yul\":2799:2830   */\n      calldataload\n        /* \"#utility.yul\":2857:2875   */\n      0xffffffffffffffff\n        /* \"#utility.yul\":2849:2855   */\n      dup2\n        /* \"#utility.yul\":2846:2876   */\n      gt\n        /* \"#utility.yul\":2843:2960   */\n      iszero\n      tag_243\n      jumpi\n        /* \"#utility.yul\":2879:2958   */\n      tag_244\n      tag_157\n      jump\t// in\n    tag_244:\n        /* \"#utility.yul\":2843:2960   */\n    tag_243:\n        /* \"#utility.yul\":2984:3047   */\n      tag_245\n        /* \"#utility.yul\":3039:3046   */\n      dup5\n        /* \"#utility.yul\":3030:3036   */\n      dup3\n        /* \"#utility.yul\":3019:3028   */\n      dup6\n        /* \"#utility.yul\":3015:3037   */\n      add\n        /* \"#utility.yul\":2984:3047   */\n      tag_167\n      jump\t// in\n    tag_245:\n        /* \"#utility.yul\":2974:3047   */\n      swap2\n      pop\n        /* \"#utility.yul\":2770:3057   */\n      pop\n        /* \"#utility.yul\":2555:3064   */\n      swap3\n      swap2\n      pop\n      pop\n      jump\t// out\n        /* \"#utility.yul\":3070:3147   */\n    tag_168:\n        /* \"#utility.yul\":3107:3114   */\n      0x00\n        /* \"#utility.yul\":3136:3141   */\n      dup2\n        /* \"#utility.yul\":3125:3141   */\n      swap1\n      pop\n        /* \"#utility.yul\":3070:3147   */\n      swap2\n      swap1\n      pop\n      jump\t// out\n        /* \"#utility.yul\":3153:3271   */\n    tag_169:\n        /* \"#utility.yul\":3240:3264   */\n      tag_248\n        /* \"#utility.yul\":3258:3263   */\n      dup2\n        /* \"#utility.yul\":3240:3264   */\n      tag_168\n      jump\t// in\n    tag_248:\n        /* \"#utility.yul\":3235:3238   */\n      dup3\n        /* \"#utility.yul\":3228:3265   */\n      mstore\n        /* \"#utility.yul\":3153:3271   */\n      pop\n      pop\n      jump\t// out\n        /* \"#utility.yul\":3277:3499   */\n    tag_30:\n        /* \"#utility.yul\":3370:3374   */\n      0x00\n        /* \"#utility.yul\":3408:3410   */\n      0x20\n        /* \"#utility.yul\":3397:3406   */\n      dup3\n        /* \"#utility.yul\":3393:3411   */\n      add\n        /* \"#utility.yul\":3385:3411   */\n      swap1\n      pop\n        /* \"#utility.yul\":3421:3492   */\n      tag_250\n        /* \"#utility.yul\":3489:3490   */\n      0x00\n        /* \"#utility.yul\":3478:3487   */\n      dup4\n        /* \"#utility.yul\":3474:3491   */\n      add\n        /* \"#utility.yul\":3465:3471   */\n      dup5\n        /* \"#utility.yul\":3421:3492   */\n      tag_169\n      jump\t// in\n    tag_250:\n        /* \"#utility.yul\":3277:3499   */\n      swap3\n      swap2\n      pop\n      pop\n      jump\t// out\n        /* \"#utility.yul\":3505:3604   */\n    tag_170:\n        /* \"#utility.yul\":3557:3563   */\n      0x00\n        /* \"#utility.yul\":3591:3596   */\n      dup2\n        /* \"#utility.yul\":3585:3597   */\n      mload\n        /* \"#utility.yul\":3575:3597   */\n      swap1\n      pop\n        /* \"#utility.yul\":3505:3604   */\n      swap2\n      swap1\n      pop\n      jump\t// out\n        /* \"#utility.yul\":3610:3779   */\n    tag_171:\n        /* \"#utility.yul\":3694:3705   */\n      0x00\n        /* \"#utility.yul\":3728:3734   */\n      dup3\n        /* \"#utility.yul\":3723:3726   */\n      dup3\n        /* \"#utility.yul\":3716:3735   */\n      mstore\n        /* \"#utility.yul\":3768:3772   */\n      0x20\n        /* \"#utility.yul\":3763:3766   */\n      dup3\n        /* \"#utility.yul\":3759:3773   */\n      add\n        /* \"#utility.yul\":3744:3773   */\n      swap1\n      pop\n        /* \"#utility.yul\":3610:3779   */\n      swap3\n      swap2\n      pop\n      pop\n      jump\t// out\n        /* \"#utility.yul\":3785:3924   */\n    tag_172:\n        /* \"#utility.yul\":3874:3880   */\n      dup3\n        /* \"#utility.yul\":3869:3872   */\n      dup2\n        /* \"#utility.yul\":3864:3867   */\n      dup4\n        /* \"#utility.yul\":3858:3881   */\n      mcopy\n        /* \"#utility.yul\":3915:3916   */\n      0x00\n        /* \"#utility.yul\":3906:3912   */\n      dup4\n        /* \"#utility.yul\":3901:3904   */\n      dup4\n        /* \"#utility.yul\":3897:3913   */\n      add\n        /* \"#utility.yul\":3890:3917   */\n      mstore\n        /* \"#utility.yul\":3785:3924   */\n      pop\n      pop\n      pop\n      jump\t// out\n        /* \"#utility.yul\":3930:4307   */\n    tag_173:\n        /* \"#utility.yul\":4018:4021   */\n      0x00\n        /* \"#utility.yul\":4046:4085   */\n      tag_255\n        /* \"#utility.yul\":4079:4084   */\n      dup3\n        /* \"#utility.yul\":4046:4085   */\n      tag_170\n      jump\t// in\n    tag_255:\n        /* \"#utility.yul\":4101:4172   */\n      tag_256\n        /* \"#utility.yul\":4165:4171   */\n      dup2\n        /* \"#utility.yul\":4160:4163   */\n      dup6\n        /* \"#utility.yul\":4101:4172   */\n      tag_171\n      jump\t// in\n    tag_256:\n        /* \"#utility.yul\":4094:4172   */\n      swap4\n      pop\n        /* \"#utility.yul\":4181:4246   */\n      tag_257\n        /* \"#utility.yul\":4239:4245   */\n      dup2\n        /* \"#utility.yul\":4234:4237   */\n      dup6\n        /* \"#utility.yul\":4227:4231   */\n      0x20\n        /* \"#utility.yul\":4220:4225   */\n      dup7\n        /* \"#utility.yul\":4216:4232   */\n      add\n        /* \"#utility.yul\":4181:4246   */\n      tag_172\n      jump\t// in\n    tag_257:\n        /* \"#utility.yul\":4271:4300   */\n      tag_258\n        /* \"#utility.yul\":4293:4299   */\n      dup2\n        /* \"#utility.yul\":4271:4300   */\n      tag_160\n      jump\t// in\n    tag_258:\n        /* \"#utility.yul\":4266:4269   */\n      dup5\n        /* \"#utility.yul\":4262:4301   */\n      add\n        /* \"#utility.yul\":4255:4301   */\n      swap2\n      pop\n        /* \"#utility.yul\":4022:4307   */\n      pop\n        /* \"#utility.yul\":3930:4307   */\n      swap3\n      swap2\n      pop\n      pop\n      jump\t// out\n        /* \"#utility.yul\":4313:4626   */\n    tag_35:\n        /* \"#utility.yul\":4426:4430   */\n      0x00\n        /* \"#utility.yul\":4464:4466   */\n      0x20\n        /* \"#utility.yul\":4453:4462   */\n      dup3\n        /* \"#utility.yul\":4449:4467   */\n      add\n        /* \"#utility.yul\":4441:4467   */\n      swap1\n      pop\n        /* \"#utility.yul\":4513:4522   */\n      dup2\n        /* \"#utility.yul\":4507:4511   */\n      dup2\n        /* \"#utility.yul\":4503:4523   */\n      sub\n        /* \"#utility.yul\":4499:4500   */\n      0x00\n        /* \"#utility.yul\":4488:4497   */\n      dup4\n        /* \"#utility.yul\":4484:4501   */\n      add\n        /* \"#utility.yul\":4477:4524   */\n      mstore\n        /* \"#utility.yul\":4541:4619   */\n      tag_260\n        /* \"#utility.yul\":4614:4618   */\n      dup2\n        /* \"#utility.yul\":4605:4611   */\n      dup5\n        /* \"#utility.yul\":4541:4619   */\n      tag_173\n      jump\t// in\n    tag_260:\n        /* \"#utility.yul\":4533:4619   */\n      swap1\n      pop\n        /* \"#utility.yul\":4313:4626   */\n      swap3\n      swap2\n      pop\n      pop\n      jump\t// out\n        /* \"#utility.yul\":4632:4722   */\n    tag_174:\n        /* \"#utility.yul\":4666:4673   */\n      0x00\n        /* \"#utility.yul\":4709:4714   */\n      dup2\n        /* \"#utility.yul\":4702:4715   */\n      iszero\n        /* \"#utility.yul\":4695:4716   */\n      iszero\n        /* \"#utility.yul\":4684:4716   */\n      swap1\n      pop\n        /* \"#utility.yul\":4632:4722   */\n      swap2\n      swap1\n      pop\n      jump\t// out\n        /* \"#utility.yul\":4728:4837   */\n    tag_175:\n        /* \"#utility.yul\":4809:4830   */\n      tag_263\n        /* \"#utility.yul\":4824:4829   */\n      dup2\n        /* \"#utility.yul\":4809:4830   */\n      tag_174\n      jump\t// in\n    tag_263:\n        /* \"#utility.yul\":4804:4807   */\n      dup3\n        /* \"#utility.yul\":4797:4831   */\n      mstore\n        /* \"#utility.yul\":4728:4837   */\n      pop\n      pop\n      jump\t// out\n        /* \"#utility.yul\":4843:5053   */\n    tag_39:\n        /* \"#utility.yul\":4930:4934   */\n      0x00\n        /* \"#utility.yul\":4968:4970   */\n      0x20\n        /* \"#utility.yul\":4957:4966   */\n      dup3\n        /* \"#utility.yul\":4953:4971   */\n      add\n        /* \"#utility.yul\":4945:4971   */\n      swap1\n      pop\n        /* \"#utility.yul\":4981:5046   */\n      tag_265\n        /* \"#utility.yul\":5043:5044   */\n      0x00\n        /* \"#utility.yul\":5032:5041   */\n      dup4\n        /* \"#utility.yul\":5028:5045   */\n      add\n        /* \"#utility.yul\":5019:5025   */\n      dup5\n        /* \"#utility.yul\":4981:5046   */\n      tag_175\n      jump\t// in\n    tag_265:\n        /* \"#utility.yul\":4843:5053   */\n      swap3\n      swap2\n      pop\n      pop\n      jump\t// out\n        /* \"#utility.yul\":5059:5181   */\n    tag_176:\n        /* \"#utility.yul\":5132:5156   */\n      tag_267\n        /* \"#utility.yul\":5150:5155   */\n      dup2\n        /* \"#utility.yul\":5132:5156   */\n      tag_168\n      jump\t// in\n    tag_267:\n        /* \"#utility.yul\":5125:5130   */\n      dup2\n        /* \"#utility.yul\":5122:5157   */\n      eq\n        /* \"#utility.yul\":5112:5175   */\n      tag_268\n      jumpi\n        /* \"#utility.yul\":5171:5172   */\n      0x00\n        /* \"#utility.yul\":5168:5169   */\n      dup1\n        /* \"#utility.yul\":5161:5173   */\n      revert\n        /* \"#utility.yul\":5112:5175   */\n    tag_268:\n        /* \"#utility.yul\":5059:5181   */\n      pop\n      jump\t// out\n        /* \"#utility.yul\":5187:5326   */\n    tag_177:\n        /* \"#utility.yul\":5233:5238   */\n      0x00\n        /* \"#utility.yul\":5271:5277   */\n      dup2\n        /* \"#utility.yul\":5258:5278   */\n      calldataload\n        /* \"#utility.yul\":5249:5278   */\n      swap1\n      pop\n        /* \"#utility.yul\":5287:5320   */\n      tag_270\n        /* \"#utility.yul\":5314:5319   */\n      dup2\n        /* \"#utility.yul\":5287:5320   */\n      tag_176\n      jump\t// in\n    tag_270:\n        /* \"#utility.yul\":5187:5326   */\n      swap3\n      swap2\n      pop\n      pop\n      jump\t// out\n        /* \"#utility.yul\":5332:5661   */\n    tag_42:\n        /* \"#utility.yul\":5391:5397   */\n      0x00\n        /* \"#utility.yul\":5440:5442   */\n      0x20\n        /* \"#utility.yul\":5428:5437   */\n      dup3\n        /* \"#utility.yul\":5419:5426   */\n      dup5\n        /* \"#utility.yul\":5415:5438   */\n      sub\n        /* \"#utility.yul\":5411:5443   */\n      slt\n        /* \"#utility.yul\":5408:5527   */\n      iszero\n      tag_272\n      jumpi\n        /* \"#utility.yul\":5446:5525   */\n      tag_273\n      tag_156\n      jump\t// in\n    tag_273:\n        /* \"#utility.yul\":5408:5527   */\n    tag_272:\n        /* \"#utility.yul\":5566:5567   */\n      0x00\n        /* \"#utility.yul\":5591:5644   */\n      tag_274\n        /* \"#utility.yul\":5636:5643   */\n      dup5\n        /* \"#utility.yul\":5627:5633   */\n      dup3\n        /* \"#utility.yul\":5616:5625   */\n      dup6\n        /* \"#utility.yul\":5612:5634   */\n      add\n        /* \"#utility.yul\":5591:5644   */\n      tag_177\n      jump\t// in\n    tag_274:\n        /* \"#utility.yul\":5581:5644   */\n      swap2\n      pop\n        /* \"#utility.yul\":5537:5654   */\n      pop\n        /* \"#utility.yul\":5332:5661   */\n      swap3\n      swap2\n      pop\n      pop\n      jump\t// out\n        /* \"#utility.yul\":5667:6321   */\n    tag_56:\n        /* \"#utility.yul\":5745:5751   */\n      0x00\n        /* \"#utility.yul\":5753:5759   */\n      dup1\n        /* \"#utility.yul\":5802:5804   */\n      0x40\n        /* \"#utility.yul\":5790:5799   */\n      dup4\n        /* \"#utility.yul\":5781:5788   */\n      dup6\n        /* \"#utility.yul\":5777:5800   */\n      sub\n        /* \"#utility.yul\":5773:5805   */\n      slt\n        /* \"#utility.yul\":5770:5889   */\n      iszero\n      tag_276\n      jumpi\n        /* \"#utility.yul\":5808:5887   */\n      tag_277\n      tag_156\n      jump\t// in\n    tag_277:\n        /* \"#utility.yul\":5770:5889   */\n    tag_276:\n        /* \"#utility.yul\":5956:5957   */\n      0x00\n        /* \"#utility.yul\":5945:5954   */\n      dup4\n        /* \"#utility.yul\":5941:5958   */\n      add\n        /* \"#utility.yul\":5928:5959   */\n      calldataload\n        /* \"#utility.yul\":5986:6004   */\n      0xffffffffffffffff\n        /* \"#utility.yul\":5978:5984   */\n      dup2\n        /* \"#utility.yul\":5975:6005   */\n      gt\n        /* \"#utility.yul\":5972:6089   */\n      iszero\n      tag_278\n      jumpi\n        /* \"#utility.yul\":6008:6087   */\n      tag_279\n      tag_157\n      jump\t// in\n    tag_279:\n        /* \"#utility.yul\":5972:6089   */\n    tag_278:\n        /* \"#utility.yul\":6113:6176   */\n      tag_280\n        /* \"#utility.yul\":6168:6175   */\n      dup6\n        /* \"#utility.yul\":6159:6165   */\n      dup3\n        /* \"#utility.yul\":6148:6157   */\n      dup7\n        /* \"#utility.yul\":6144:6166   */\n      add\n        /* \"#utility.yul\":6113:6176   */\n      tag_167\n      jump\t// in\n    tag_280:\n        /* \"#utility.yul\":6103:6176   */\n      swap3\n      pop\n        /* \"#utility.yul\":5899:6186   */\n      pop\n        /* \"#utility.yul\":6225:6227   */\n      0x20\n        /* \"#utility.yul\":6251:6304   */\n      tag_281\n        /* \"#utility.yul\":6296:6303   */\n      dup6\n        /* \"#utility.yul\":6287:6293   */\n      dup3\n        /* \"#utility.yul\":6276:6285   */\n      dup7\n        /* \"#utility.yul\":6272:6294   */\n      add\n        /* \"#utility.yul\":6251:6304   */\n      tag_177\n      jump\t// in\n    tag_281:\n        /* \"#utility.yul\":6241:6304   */\n      swap2\n      pop\n        /* \"#utility.yul\":6196:6314   */\n      pop\n        /* \"#utility.yul\":5667:6321   */\n      swap3\n      pop\n      swap3\n      swap1\n      pop\n      jump\t// out\n        /* \"#utility.yul\":6327:6441   */\n    tag_178:\n        /* \"#utility.yul\":6394:6400   */\n      0x00\n        /* \"#utility.yul\":6428:6433   */\n      dup2\n        /* \"#utility.yul\":6422:6434   */\n      mload\n        /* \"#utility.yul\":6412:6434   */\n      swap1\n      pop\n        /* \"#utility.yul\":6327:6441   */\n      swap2\n      swap1\n      pop\n      jump\t// out\n        /* \"#utility.yul\":6447:6631   */\n    tag_179:\n        /* \"#utility.yul\":6546:6557   */\n      0x00\n        /* \"#utility.yul\":6580:6586   */\n      dup3\n        /* \"#utility.yul\":6575:6578   */\n      dup3\n        /* \"#utility.yul\":6568:6587   */\n      mstore\n        /* \"#utility.yul\":6620:6624   */\n      0x20\n        /* \"#utility.yul\":6615:6618   */\n      dup3\n        /* \"#utility.yul\":6611:6625   */\n      add\n        /* \"#utility.yul\":6596:6625   */\n      swap1\n      pop\n        /* \"#utility.yul\":6447:6631   */\n      swap3\n      swap2\n      pop\n      pop\n      jump\t// out\n        /* \"#utility.yul\":6637:6769   */\n    tag_180:\n        /* \"#utility.yul\":6704:6708   */\n      0x00\n        /* \"#utility.yul\":6727:6730   */\n      dup2\n        /* \"#utility.yul\":6719:6730   */\n      swap1\n      pop\n        /* \"#utility.yul\":6757:6761   */\n      0x20\n        /* \"#utility.yul\":6752:6755   */\n      dup3\n        /* \"#utility.yul\":6748:6762   */\n      add\n        /* \"#utility.yul\":6740:6762   */\n      swap1\n      pop\n        /* \"#utility.yul\":6637:6769   */\n      swap2\n      swap1\n      pop\n      jump\t// out\n        /* \"#utility.yul\":6775:6883   */\n    tag_181:\n        /* \"#utility.yul\":6852:6876   */\n      tag_286\n        /* \"#utility.yul\":6870:6875   */\n      dup2\n        /* \"#utility.yul\":6852:6876   */\n      tag_168\n      jump\t// in\n    tag_286:\n        /* \"#utility.yul\":6847:6850   */\n      dup3\n        /* \"#utility.yul\":6840:6877   */\n      mstore\n        /* \"#utility.yul\":6775:6883   */\n      pop\n      pop\n      jump\t// out\n        /* \"#utility.yul\":6889:7068   */\n    tag_182:\n        /* \"#utility.yul\":6958:6968   */\n      0x00\n        /* \"#utility.yul\":6979:7025   */\n      tag_288\n        /* \"#utility.yul\":7021:7024   */\n      dup4\n        /* \"#utility.yul\":7013:7019   */\n      dup4\n        /* \"#utility.yul\":6979:7025   */\n      tag_181\n      jump\t// in\n    tag_288:\n        /* \"#utility.yul\":7057:7061   */\n      0x20\n        /* \"#utility.yul\":7052:7055   */\n      dup4\n        /* \"#utility.yul\":7048:7062   */\n      add\n        /* \"#utility.yul\":7034:7062   */\n      swap1\n      pop\n        /* \"#utility.yul\":6889:7068   */\n      swap3\n      swap2\n      pop\n      pop\n      jump\t// out\n        /* \"#utility.yul\":7074:7187   */\n    tag_183:\n        /* \"#utility.yul\":7144:7148   */\n      0x00\n        /* \"#utility.yul\":7176:7180   */\n      0x20\n        /* \"#utility.yul\":7171:7174   */\n      dup3\n        /* \"#utility.yul\":7167:7181   */\n      add\n        /* \"#utility.yul\":7159:7181   */\n      swap1\n      pop\n        /* \"#utility.yul\":7074:7187   */\n      swap2\n      swap1\n      pop\n      jump\t// out\n        /* \"#utility.yul\":7223:7955   */\n    tag_184:\n        /* \"#utility.yul\":7342:7345   */\n      0x00\n        /* \"#utility.yul\":7371:7425   */\n      tag_291\n        /* \"#utility.yul\":7419:7424   */\n      dup3\n        /* \"#utility.yul\":7371:7425   */\n      tag_178\n      jump\t// in\n    tag_291:\n        /* \"#utility.yul\":7441:7527   */\n      tag_292\n        /* \"#utility.yul\":7520:7526   */\n      dup2\n        /* \"#utility.yul\":7515:7518   */\n      dup6\n        /* \"#utility.yul\":7441:7527   */\n      tag_179\n      jump\t// in\n    tag_292:\n        /* \"#utility.yul\":7434:7527   */\n      swap4\n      pop\n        /* \"#utility.yul\":7551:7607   */\n      tag_293\n        /* \"#utility.yul\":7601:7606   */\n      dup4\n        /* \"#utility.yul\":7551:7607   */\n      tag_180\n      jump\t// in\n    tag_293:\n        /* \"#utility.yul\":7630:7637   */\n      dup1\n        /* \"#utility.yul\":7661:7662   */\n      0x00\n        /* \"#utility.yul\":7646:7930   */\n    tag_294:\n        /* \"#utility.yul\":7671:7677   */\n      dup4\n        /* \"#utility.yul\":7668:7669   */\n      dup2\n        /* \"#utility.yul\":7665:7678   */\n      lt\n        /* \"#utility.yul\":7646:7930   */\n      iszero\n      tag_296\n      jumpi\n        /* \"#utility.yul\":7747:7753   */\n      dup2\n        /* \"#utility.yul\":7741:7754   */\n      mload\n        /* \"#utility.yul\":7774:7837   */\n      tag_297\n        /* \"#utility.yul\":7833:7836   */\n      dup9\n        /* \"#utility.yul\":7818:7831   */\n      dup3\n        /* \"#utility.yul\":7774:7837   */\n      tag_182\n      jump\t// in\n    tag_297:\n        /* \"#utility.yul\":7767:7837   */\n      swap8\n      pop\n        /* \"#utility.yul\":7860:7920   */\n      tag_298\n        /* \"#utility.yul\":7913:7919   */\n      dup4\n        /* \"#utility.yul\":7860:7920   */\n      tag_183\n      jump\t// in\n    tag_298:\n        /* \"#utility.yul\":7850:7920   */\n      swap3\n      pop\n        /* \"#utility.yul\":7706:7930   */\n      pop\n        /* \"#utility.yul\":7693:7694   */\n      0x01\n        /* \"#utility.yul\":7690:7691   */\n      dup2\n        /* \"#utility.yul\":7686:7695   */\n      add\n        /* \"#utility.yul\":7681:7695   */\n      swap1\n      pop\n        /* \"#utility.yul\":7646:7930   */\n      jump(tag_294)\n    tag_296:\n        /* \"#utility.yul\":7650:7664   */\n      pop\n        /* \"#utility.yul\":7946:7949   */\n      dup6\n        /* \"#utility.yul\":7939:7949   */\n      swap4\n      pop\n        /* \"#utility.yul\":7347:7955   */\n      pop\n      pop\n      pop\n        /* \"#utility.yul\":7223:7955   */\n      swap3\n      swap2\n      pop\n      pop\n      jump\t// out\n        /* \"#utility.yul\":7961:8334   */\n    tag_70:\n        /* \"#utility.yul\":8104:8108   */\n      0x00\n        /* \"#utility.yul\":8142:8144   */\n      0x20\n        /* \"#utility.yul\":8131:8140   */\n      dup3\n        /* \"#utility.yul\":8127:8145   */\n      add\n        /* \"#utility.yul\":8119:8145   */\n      swap1\n      pop\n        /* \"#utility.yul\":8191:8200   */\n      dup2\n        /* \"#utility.yul\":8185:8189   */\n      dup2\n        /* \"#utility.yul\":8181:8201   */\n      sub\n        /* \"#utility.yul\":8177:8178   */\n      0x00\n        /* \"#utility.yul\":8166:8175   */\n      dup4\n        /* \"#utility.yul\":8162:8179   */\n      add\n        /* \"#utility.yul\":8155:8202   */\n      mstore\n        /* \"#utility.yul\":8219:8327   */\n      tag_300\n        /* \"#utility.yul\":8322:8326   */\n      dup2\n        /* \"#utility.yul\":8313:8319   */\n      dup5\n        /* \"#utility.yul\":8219:8327   */\n      tag_184\n      jump\t// in\n    tag_300:\n        /* \"#utility.yul\":8211:8327   */\n      swap1\n      pop\n        /* \"#utility.yul\":7961:8334   */\n      swap3\n      swap2\n      pop\n      pop\n      jump\t// out\n        /* \"#utility.yul\":8340:8763   */\n    tag_75:\n        /* \"#utility.yul\":8481:8485   */\n      0x00\n        /* \"#utility.yul\":8519:8521   */\n      0x40\n        /* \"#utility.yul\":8508:8517   */\n      dup3\n        /* \"#utility.yul\":8504:8522   */\n      add\n        /* \"#utility.yul\":8496:8522   */\n      swap1\n      pop\n        /* \"#utility.yul\":8568:8577   */\n      dup2\n        /* \"#utility.yul\":8562:8566   */\n      dup2\n        /* \"#utility.yul\":8558:8578   */\n      sub\n        /* \"#utility.yul\":8554:8555   */\n      0x00\n        /* \"#utility.yul\":8543:8552   */\n      dup4\n        /* \"#utility.yul\":8539:8556   */\n      add\n        /* \"#utility.yul\":8532:8579   */\n      mstore\n        /* \"#utility.yul\":8596:8674   */\n      tag_302\n        /* \"#utility.yul\":8669:8673   */\n      dup2\n        /* \"#utility.yul\":8660:8666   */\n      dup6\n        /* \"#utility.yul\":8596:8674   */\n      tag_173\n      jump\t// in\n    tag_302:\n        /* \"#utility.yul\":8588:8674   */\n      swap1\n      pop\n        /* \"#utility.yul\":8684:8756   */\n      tag_303\n        /* \"#utility.yul\":8752:8754   */\n      0x20\n        /* \"#utility.yul\":8741:8750   */\n      dup4\n        /* \"#utility.yul\":8737:8755   */\n      add\n        /* \"#utility.yul\":8728:8734   */\n      dup5\n        /* \"#utility.yul\":8684:8756   */\n      tag_169\n      jump\t// in\n    tag_303:\n        /* \"#utility.yul\":8340:8763   */\n      swap4\n      swap3\n      pop\n      pop\n      pop\n      jump\t// out\n        /* \"#utility.yul\":8769:8949   */\n    tag_99:\n        /* \"#utility.yul\":8817:8894   */\n      0x4e487b7100000000000000000000000000000000000000000000000000000000\n        /* \"#utility.yul\":8814:8815   */\n      0x00\n        /* \"#utility.yul\":8807:8895   */\n      mstore\n        /* \"#utility.yul\":8914:8918   */\n      0x21\n        /* \"#utility.yul\":8911:8912   */\n      0x04\n        /* \"#utility.yul\":8904:8919   */\n      mstore\n        /* \"#utility.yul\":8938:8942   */\n      0x24\n        /* \"#utility.yul\":8935:8936   */\n      0x00\n        /* \"#utility.yul\":8928:8943   */\n      revert\n        /* \"#utility.yul\":8955:9076   */\n    tag_185:\n        /* \"#utility.yul\":9044:9045   */\n      0x02\n        /* \"#utility.yul\":9037:9042   */\n      dup2\n        /* \"#utility.yul\":9034:9046   */\n      lt\n        /* \"#utility.yul\":9024:9070   */\n      tag_306\n      jumpi\n        /* \"#utility.yul\":9050:9068   */\n      tag_307\n      tag_99\n      jump\t// in\n    tag_307:\n        /* \"#utility.yul\":9024:9070   */\n    tag_306:\n        /* \"#utility.yul\":8955:9076   */\n      pop\n      jump\t// out\n        /* \"#utility.yul\":9082:9225   */\n    tag_186:\n        /* \"#utility.yul\":9135:9142   */\n      0x00\n        /* \"#utility.yul\":9164:9169   */\n      dup2\n        /* \"#utility.yul\":9153:9169   */\n      swap1\n      pop\n        /* \"#utility.yul\":9170:9219   */\n      tag_309\n        /* \"#utility.yul\":9213:9218   */\n      dup3\n        /* \"#utility.yul\":9170:9219   */\n      tag_185\n      jump\t// in\n    tag_309:\n        /* \"#utility.yul\":9082:9225   */\n      swap2\n      swap1\n      pop\n      jump\t// out\n        /* \"#utility.yul\":9231:9374   */\n    tag_187:\n        /* \"#utility.yul\":9295:9304   */\n      0x00\n        /* \"#utility.yul\":9328:9368   */\n      tag_311\n        /* \"#utility.yul\":9362:9367   */\n      dup3\n        /* \"#utility.yul\":9328:9368   */\n      tag_186\n      jump\t// in\n    tag_311:\n        /* \"#utility.yul\":9315:9368   */\n      swap1\n      pop\n        /* \"#utility.yul\":9231:9374   */\n      swap2\n      swap1\n      pop\n      jump\t// out\n        /* \"#utility.yul\":9380:9539   */\n    tag_188:\n        /* \"#utility.yul\":9481:9532   */\n      tag_313\n        /* \"#utility.yul\":9526:9531   */\n      dup2\n        /* \"#utility.yul\":9481:9532   */\n      tag_187\n      jump\t// in\n    tag_313:\n        /* \"#utility.yul\":9476:9479   */\n      dup3\n        /* \"#utility.yul\":9469:9533   */\n      mstore\n        /* \"#utility.yul\":9380:9539   */\n      pop\n      pop\n      jump\t// out\n        /* \"#utility.yul\":9545:9795   */\n    tag_87:\n        /* \"#utility.yul\":9652:9656   */\n      0x00\n        /* \"#utility.yul\":9690:9692   */\n      0x20\n        /* \"#utility.yul\":9679:9688   */\n      dup3\n        /* \"#utility.yul\":9675:9693   */\n      add\n        /* \"#utility.yul\":9667:9693   */\n      swap1\n      pop\n        /* \"#utility.yul\":9703:9788   */\n      tag_315\n        /* \"#utility.yul\":9785:9786   */\n      0x00\n        /* \"#utility.yul\":9774:9783   */\n      dup4\n        /* \"#utility.yul\":9770:9787   */\n      add\n        /* \"#utility.yul\":9761:9767   */\n      dup5\n        /* \"#utility.yul\":9703:9788   */\n      tag_188\n      jump\t// in\n    tag_315:\n        /* \"#utility.yul\":9545:9795   */\n      swap3\n      swap2\n      pop\n      pop\n      jump\t// out\n        /* \"#utility.yul\":9801:9981   */\n    tag_189:\n        /* \"#utility.yul\":9849:9926   */\n      0x4e487b7100000000000000000000000000000000000000000000000000000000\n        /* \"#utility.yul\":9846:9847   */\n      0x00\n        /* \"#utility.yul\":9839:9927   */\n      mstore\n        /* \"#utility.yul\":9946:9950   */\n      0x11\n        /* \"#utility.yul\":9943:9944   */\n      0x04\n        /* \"#utility.yul\":9936:9951   */\n      mstore\n        /* \"#utility.yul\":9970:9974   */\n      0x24\n        /* \"#utility.yul\":9967:9968   */\n      0x00\n        /* \"#utility.yul\":9960:9975   */\n      revert\n        /* \"#utility.yul\":9987:10178   */\n    tag_111:\n        /* \"#utility.yul\":10027:10030   */\n      0x00\n        /* \"#utility.yul\":10046:10066   */\n      tag_318\n        /* \"#utility.yul\":10064:10065   */\n      dup3\n        /* \"#utility.yul\":10046:10066   */\n      tag_168\n      jump\t// in\n    tag_318:\n        /* \"#utility.yul\":10041:10066   */\n      swap2\n      pop\n        /* \"#utility.yul\":10080:10100   */\n      tag_319\n        /* \"#utility.yul\":10098:10099   */\n      dup4\n        /* \"#utility.yul\":10080:10100   */\n      tag_168\n      jump\t// in\n    tag_319:\n        /* \"#utility.yul\":10075:10100   */\n      swap3\n      pop\n        /* \"#utility.yul\":10123:10124   */\n      dup3\n        /* \"#utility.yul\":10120:10121   */\n      dup3\n        /* \"#utility.yul\":10116:10125   */\n      add\n        /* \"#utility.yul\":10109:10125   */\n      swap1\n      pop\n        /* \"#utility.yul\":10144:10147   */\n      dup1\n        /* \"#utility.yul\":10141:10142   */\n      dup3\n        /* \"#utility.yul\":10138:10148   */\n      gt\n        /* \"#utility.yul\":10135:10171   */\n      iszero\n      tag_320\n      jumpi\n        /* \"#utility.yul\":10151:10169   */\n      tag_321\n      tag_189\n      jump\t// in\n    tag_321:\n        /* \"#utility.yul\":10135:10171   */\n    tag_320:\n        /* \"#utility.yul\":9987:10178   */\n      swap3\n      swap2\n      pop\n      pop\n      jump\t// out\n        /* \"#utility.yul\":10184:10417   */\n    tag_113:\n        /* \"#utility.yul\":10223:10226   */\n      0x00\n        /* \"#utility.yul\":10246:10270   */\n      tag_323\n        /* \"#utility.yul\":10264:10269   */\n      dup3\n        /* \"#utility.yul\":10246:10270   */\n      tag_168\n      jump\t// in\n    tag_323:\n        /* \"#utility.yul\":10237:10270   */\n      swap2\n      pop\n        /* \"#utility.yul\":10292:10358   */\n      0xffffffffffffffffffffffffffffffffffffffffffffffffffffffffffffffff\n        /* \"#utility.yul\":10285:10290   */\n      dup3\n        /* \"#utility.yul\":10282:10359   */\n      sub\n        /* \"#utility.yul\":10279:10382   */\n      tag_324\n      jumpi\n        /* \"#utility.yul\":10362:10380   */\n      tag_325\n      tag_189\n      jump\t// in\n    tag_325:\n        /* \"#utility.yul\":10279:10382   */\n    tag_324:\n        /* \"#utility.yul\":10409:10410   */\n      0x01\n        /* \"#utility.yul\":10402:10407   */\n      dup3\n        /* \"#utility.yul\":10398:10411   */\n      add\n        /* \"#utility.yul\":10391:10411   */\n      swap1\n      pop\n        /* \"#utility.yul\":10184:10417   */\n      swap2\n      swap1\n      pop\n      jump\t// out\n        /* \"#utility.yul\":10423:10603   */\n    tag_190:\n        /* \"#utility.yul\":10471:10548   */\n      0x4e487b7100000000000000000000000000000000000000000000000000000000\n        /* \"#utility.yul\":10468:10469   */\n      0x00\n        /* \"#utility.yul\":10461:10549   */\n      mstore\n        /* \"#utility.yul\":10568:10572   */\n      0x22\n        /* \"#utility.yul\":10565:10566   */\n      0x04\n        /* \"#utility.yul\":10558:10573   */\n      mstore\n        /* \"#utility.yul\":10592:10596   */\n      0x24\n        /* \"#utility.yul\":10589:10590   */\n      0x00\n        /* \"#utility.yul\":10582:10597   */\n      revert\n        /* \"#utility.yul\":10609:10929   */\n    tag_134:\n        /* \"#utility.yul\":10653:10659   */\n      0x00\n        /* \"#utility.yul\":10690:10691   */\n      0x02\n        /* \"#utility.yul\":10684:10688   */\n      dup3\n        /* \"#utility.yul\":10680:10692   */\n      div\n        /* \"#utility.yul\":10670:10692   */\n      swap1\n      pop\n        /* \"#utility.yul\":10737:10738   */\n      0x01\n        /* \"#utility.yul\":10731:10735   */\n      dup3\n        /* \"#utility.yul\":10727:10739   */\n      and\n        /* \"#utility.yul\":10758:10776   */\n      dup1\n        /* \"#utility.yul\":10748:10829   */\n      tag_328\n      jumpi\n        /* \"#utility.yul\":10814:10818   */\n      0x7f\n        /* \"#utility.yul\":10806:10812   */\n      dup3\n        /* \"#utility.yul\":10802:10819   */\n      and\n        /* \"#utility.yul\":10792:10819   */\n      swap2\n      pop\n        /* \"#utility.yul\":10748:10829   */\n    tag_328:\n        /* \"#utility.yul\":10876:10878   */\n      0x20\n        /* \"#utility.yul\":10868:10874   */\n      dup3\n        /* \"#utility.yul\":10865:10879   */\n      lt\n        /* \"#utility.yul\":10845:10863   */\n      dup2\n        /* \"#utility.yul\":10842:10880   */\n      sub\n        /* \"#utility.yul\":10839:10923   */\n      tag_329\n      jumpi\n        /* \"#utility.yul\":10895:10913   */\n      tag_330\n      tag_190\n      jump\t// in\n    tag_330:\n        /* \"#utility.yul\":10839:10923   */\n    tag_329:\n        /* \"#utility.yul\":10660:10929   */\n      pop\n        /* \"#utility.yul\":10609:10929   */\n      swap2\n      swap1\n      pop\n      jump\t// out\n        /* \"#utility.yul\":10935:11076   */\n    tag_191:\n        /* \"#utility.yul\":10984:10988   */\n      0x00\n        /* \"#utility.yul\":11007:11010   */\n      dup2\n        /* \"#utility.yul\":10999:11010   */\n      swap1\n      pop\n        /* \"#utility.yul\":11030:11033   */\n      dup2\n        /* \"#utility.yul\":11027:11028   */\n      0x00\n        /* \"#utility.yul\":11020:11034   */\n      mstore\n        /* \"#utility.yul\":11064:11068   */\n      0x20\n        /* \"#utility.yul\":11061:11062   */\n      0x00\n        /* \"#utility.yul\":11051:11069   */\n      keccak256\n        /* \"#utility.yul\":11043:11069   */\n      swap1\n      pop\n        /* \"#utility.yul\":10935:11076   */\n      swap2\n      swap1\n      pop\n      jump\t// out\n        /* \"#utility.yul\":11082:11175   */\n    tag_192:\n        /* \"#utility.yul\":11119:11125   */\n      0x00\n        /* \"#utility.yul\":11166:11168   */\n      0x20\n        /* \"#utility.yul\":11161:11163   */\n      0x1f\n        /* \"#utility.yul\":11154:11159   */\n      dup4\n        /* \"#utility.yul\":11150:11164   */\n      add\n        /* \"#utility.yul\":11146:11169   */\n      div\n        /* \"#utility.yul\":11136:11169   */\n      swap1\n      pop\n        /* \"#utility.yul\":11082:11175   */\n      swap2\n      swap1\n      pop\n      jump\t// out\n        /* \"#utility.yul\":11181:11288   */\n    tag_193:\n        /* \"#utility.yul\":11225:11233   */\n      0x00\n        /* \"#utility.yul\":11275:11280   */\n      dup3\n        /* \"#utility.yul\":11269:11273   */\n      dup3\n        /* \"#utility.yul\":11265:11281   */\n      shl\n        /* \"#utility.yul\":11244:11281   */\n      swap1\n      pop\n        /* \"#utility.yul\":11181:11288   */\n      swap3\n      swap2\n      pop\n      pop\n      jump\t// out\n        /* \"#utility.yul\":11294:11687   */\n    tag_194:\n        /* \"#utility.yul\":11363:11369   */\n      0x00\n        /* \"#utility.yul\":11413:11414   */\n      0x08\n        /* \"#utility.yul\":11401:11411   */\n      dup4\n        /* \"#utility.yul\":11397:11415   */\n      mul\n        /* \"#utility.yul\":11436:11533   */\n      tag_335\n        /* \"#utility.yul\":11466:11532   */\n      0xffffffffffffffffffffffffffffffffffffffffffffffffffffffffffffffff\n        /* \"#utility.yul\":11455:11464   */\n      dup3\n        /* \"#utility.yul\":11436:11533   */\n      tag_193\n      jump\t// in\n    tag_335:\n        /* \"#utility.yul\":11554:11593   */\n      tag_336\n        /* \"#utility.yul\":11584:11592   */\n      dup7\n        /* \"#utility.yul\":11573:11582   */\n      dup4\n        /* \"#utility.yul\":11554:11593   */\n      tag_193\n      jump\t// in\n    tag_336:\n        /* \"#utility.yul\":11542:11593   */\n      swap6\n      pop\n        /* \"#utility.yul\":11626:11630   */\n      dup1\n        /* \"#utility.yul\":11622:11631   */\n      not\n        /* \"#utility.yul\":11615:11620   */\n      dup5\n        /* \"#utility.yul\":11611:11632   */\n      and\n        /* \"#utility.yul\":11602:11632   */\n      swap4\n      pop\n        /* \"#utility.yul\":11675:11679   */\n      dup1\n        /* \"#utility.yul\":11665:11673   */\n      dup7\n        /* \"#utility.yul\":11661:11680   */\n      and\n        /* \"#utility.yul\":11654:11659   */\n      dup5\n        /* \"#utility.yul\":11651:11681   */\n      or\n        /* \"#utility.yul\":11641:11681   */\n      swap3\n      pop\n        /* \"#utility.yul\":11370:11687   */\n      pop\n      pop\n        /* \"#utility.yul\":11294:11687   */\n      swap4\n      swap3\n      pop\n      pop\n      pop\n      jump\t// out\n        /* \"#utility.yul\":11693:11753   */\n    tag_195:\n        /* \"#utility.yul\":11721:11724   */\n      0x00\n        /* \"#utility.yul\":11742:11747   */\n      dup2\n        /* \"#utility.yul\":11735:11747   */\n      swap1\n      pop\n        /* \"#utility.yul\":11693:11753   */\n      swap2\n      swap1\n      pop\n      jump\t// out\n        /* \"#utility.yul\":11759:11901   */\n    tag_196:\n        /* \"#utility.yul\":11809:11818   */\n      0x00\n        /* \"#utility.yul\":11842:11895   */\n      tag_339\n        /* \"#utility.yul\":11860:11894   */\n      tag_340\n        /* \"#utility.yul\":11869:11893   */\n      tag_341\n        /* \"#utility.yul\":11887:11892   */\n      dup5\n        /* \"#utility.yul\":11869:11893   */\n      tag_168\n      jump\t// in\n    tag_341:\n        /* \"#utility.yul\":11860:11894   */\n      tag_195\n      jump\t// in\n    tag_340:\n        /* \"#utility.yul\":11842:11895   */\n      tag_168\n      jump\t// in\n    tag_339:\n        /* \"#utility.yul\":11829:11895   */\n      swap1\n      pop\n        /* \"#utility.yul\":11759:11901   */\n      swap2\n      swap1\n      pop\n      jump\t// out\n        /* \"#utility.yul\":11907:11982   */\n    tag_197:\n        /* \"#utility.yul\":11950:11953   */\n      0x00\n        /* \"#utility.yul\":11971:11976   */\n      dup2\n        /* \"#utility.yul\":11964:11976   */\n      swap1\n      pop\n        /* \"#utility.yul\":11907:11982   */\n      swap2\n      swap1\n      pop\n      jump\t// out\n        /* \"#utility.yul\":11988:12257   */\n    tag_198:\n        /* \"#utility.yul\":12098:12137   */\n      tag_344\n        /* \"#utility.yul\":12129:12136   */\n      dup4\n        /* \"#utility.yul\":12098:12137   */\n      tag_196\n      jump\t// in\n    tag_344:\n        /* \"#utility.yul\":12159:12250   */\n      tag_345\n        /* \"#utility.yul\":12208:12249   */\n      tag_346\n        /* \"#utility.yul\":12232:12248   */\n      dup3\n        /* \"#utility.yul\":12208:12249   */\n      tag_197\n      jump\t// in\n    tag_346:\n        /* \"#utility.yul\":12200:12206   */\n      dup5\n        /* \"#utility.yul\":12193:12197   */\n      dup5\n        /* \"#utility.yul\":12187:12198   */\n      sload\n        /* \"#utility.yul\":12159:12250   */\n      tag_194\n      jump\t// in\n    tag_345:\n        /* \"#utility.yul\":12153:12157   */\n      dup3\n        /* \"#utility.yul\":12146:12251   */\n      sstore\n        /* \"#utility.yul\":12064:12257   */\n      pop\n        /* \"#utility.yul\":11988:12257   */\n      pop\n      pop\n      pop\n      jump\t// out\n        /* \"#utility.yul\":12263:12336   */\n    tag_199:\n        /* \"#utility.yul\":12308:12311   */\n      0x00\n        /* \"#utility.yul\":12263:12336   */\n      swap1\n      jump\t// out\n        /* \"#utility.yul\":12342:12531   */\n    tag_200:\n        /* \"#utility.yul\":12419:12451   */\n      tag_349\n      tag_199\n      jump\t// in\n    tag_349:\n        /* \"#utility.yul\":12460:12525   */\n      tag_350\n        /* \"#utility.yul\":12518:12524   */\n      dup2\n        /* \"#utility.yul\":12510:12516   */\n      dup5\n        /* \"#utility.yul\":12504:12508   */\n      dup5\n        /* \"#utility.yul\":12460:12525   */\n      tag_198\n      jump\t// in\n    tag_350:\n        /* \"#utility.yul\":12395:12531   */\n      pop\n        /* \"#utility.yul\":12342:12531   */\n      pop\n      pop\n      jump\t// out\n        /* \"#utility.yul\":12537:12723   */\n    tag_201:\n        /* \"#utility.yul\":12597:12717   */\n    tag_352:\n        /* \"#utility.yul\":12614:12617   */\n      dup2\n        /* \"#utility.yul\":12607:12612   */\n      dup2\n        /* \"#utility.yul\":12604:12618   */\n      lt\n        /* \"#utility.yul\":12597:12717   */\n      iszero\n      tag_354\n      jumpi\n        /* \"#utility.yul\":12668:12707   */\n      tag_355\n        /* \"#utility.yul\":12705:12706   */\n      0x00\n        /* \"#utility.yul\":12698:12703   */\n      dup3\n        /* \"#utility.yul\":12668:12707   */\n      tag_200\n      jump\t// in\n    tag_355:\n        /* \"#utility.yul\":12641:12642   */\n      0x01\n        /* \"#utility.yul\":12634:12639   */\n      dup2\n        /* \"#utility.yul\":12630:12643   */\n      add\n        /* \"#utility.yul\":12621:12643   */\n      swap1\n      pop\n        /* \"#utility.yul\":12597:12717   */\n      jump(tag_352)\n    tag_354:\n        /* \"#utility.yul\":12537:12723   */\n      pop\n      pop\n      jump\t// out\n        /* \"#utility.yul\":12729:13272   */\n    tag_202:\n        /* \"#utility.yul\":12830:12832   */\n      0x1f\n        /* \"#utility.yul\":12825:12828   */\n      dup3\n        /* \"#utility.yul\":12822:12833   */\n      gt\n        /* \"#utility.yul\":12819:13265   */\n      iszero\n      tag_357\n      jumpi\n        /* \"#utility.yul\":12864:12902   */\n      tag_358\n        /* \"#utility.yul\":12896:12901   */\n      dup2\n        /* \"#utility.yul\":12864:12902   */\n      tag_191\n      jump\t// in\n    tag_358:\n        /* \"#utility.yul\":12948:12977   */\n      tag_359\n        /* \"#utility.yul\":12966:12976   */\n      dup5\n        /* \"#utility.yul\":12948:12977   */\n      tag_192\n      jump\t// in\n    tag_359:\n        /* \"#utility.yul\":12938:12946   */\n      dup2\n        /* \"#utility.yul\":12934:12978   */\n      add\n        /* \"#utility.yul\":13131:13133   */\n      0x20\n        /* \"#utility.yul\":13119:13129   */\n      dup6\n        /* \"#utility.yul\":13116:13134   */\n      lt\n        /* \"#utility.yul\":13113:13162   */\n      iszero\n      tag_360\n      jumpi\n        /* \"#utility.yul\":13152:13160   */\n      dup2\n        /* \"#utility.yul\":13137:13160   */\n      swap1\n      pop\n        /* \"#utility.yul\":13113:13162   */\n    tag_360:\n        /* \"#utility.yul\":13175:13255   */\n      tag_361\n        /* \"#utility.yul\":13231:13253   */\n      tag_362\n        /* \"#utility.yul\":13249:13252   */\n      dup6\n        /* \"#utility.yul\":13231:13253   */\n      tag_192\n      jump\t// in\n    tag_362:\n        /* \"#utility.yul\":13221:13229   */\n      dup4\n        /* \"#utility.yul\":13217:13254   */\n      add\n        /* \"#utility.yul\":13204:13215   */\n      dup3\n        /* \"#utility.yul\":13175:13255   */\n      tag_201\n      jump\t// in\n    tag_361:\n        /* \"#utility.yul\":12834:13265   */\n      pop\n      pop\n        /* \"#utility.yul\":12819:13265   */\n    tag_357:\n        /* \"#utility.yul\":12729:13272   */\n      pop\n      pop\n      pop\n      jump\t// out\n        /* \"#utility.yul\":13278:13395   */\n    tag_203:\n        /* \"#utility.yul\":13332:13340   */\n      0x00\n        /* \"#utility.yul\":13382:13387   */\n      dup3\n        /* \"#utility.yul\":13376:13380   */\n      dup3\n        /* \"#utility.yul\":13372:13388   */\n      shr\n        /* \"#utility.yul\":13351:13388   */\n      swap1\n      pop\n        /* \"#utility.yul\":13278:13395   */\n      swap3\n      swap2\n      pop\n      pop\n      jump\t// out\n        /* \"#utility.yul\":13401:13570   */\n    tag_204:\n        /* \"#utility.yul\":13445:13451   */\n      0x00\n        /* \"#utility.yul\":13478:13529   */\n      tag_365\n        /* \"#utility.yul\":13526:13527   */\n      0x00\n        /* \"#utility.yul\":13522:13528   */\n      not\n        /* \"#utility.yul\":13514:13519   */\n      dup5\n        /* \"#utility.yul\":13511:13512   */\n      0x08\n        /* \"#utility.yul\":13507:13520   */\n      mul\n        /* \"#utility.yul\":13478:13529   */\n      tag_203\n      jump\t// in\n    tag_365:\n        /* \"#utility.yul\":13474:13530   */\n      not\n        /* \"#utility.yul\":13559:13563   */\n      dup1\n        /* \"#utility.yul\":13553:13557   */\n      dup4\n        /* \"#utility.yul\":13549:13564   */\n      and\n        /* \"#utility.yul\":13539:13564   */\n      swap2\n      pop\n        /* \"#utility.yul\":13452:13570   */\n      pop\n        /* \"#utility.yul\":13401:13570   */\n      swap3\n      swap2\n      pop\n      pop\n      jump\t// out\n        /* \"#utility.yul\":13575:13870   */\n    tag_205:\n        /* \"#utility.yul\":13651:13655   */\n      0x00\n        /* \"#utility.yul\":13797:13826   */\n      tag_367\n        /* \"#utility.yul\":13822:13825   */\n      dup4\n        /* \"#utility.yul\":13816:13820   */\n      dup4\n        /* \"#utility.yul\":13797:13826   */\n      tag_204\n      jump\t// in\n    tag_367:\n        /* \"#utility.yul\":13789:13826   */\n      swap2\n      pop\n        /* \"#utility.yul\":13859:13862   */\n      dup3\n        /* \"#utility.yul\":13856:13857   */\n      0x02\n        /* \"#utility.yul\":13852:13863   */\n      mul\n        /* \"#utility.yul\":13846:13850   */\n      dup3\n        /* \"#utility.yul\":13843:13864   */\n      or\n        /* \"#utility.yul\":13835:13864   */\n      swap1\n      pop\n        /* \"#utility.yul\":13575:13870   */\n      swap3\n      swap2\n      pop\n      pop\n      jump\t// out\n        /* \"#utility.yul\":13875:15270   */\n    tag_117:\n        /* \"#utility.yul\":13992:14029   */\n      tag_369\n        /* \"#utility.yul\":14025:14028   */\n      dup3\n        /* \"#utility.yul\":13992:14029   */\n      tag_170\n      jump\t// in\n    tag_369:\n        /* \"#utility.yul\":14094:14112   */\n      0xffffffffffffffff\n        /* \"#utility.yul\":14086:14092   */\n      dup2\n        /* \"#utility.yul\":14083:14113   */\n      gt\n        /* \"#utility.yul\":14080:14136   */\n      iszero\n      tag_370\n      jumpi\n        /* \"#utility.yul\":14116:14134   */\n      tag_371\n      tag_161\n      jump\t// in\n    tag_371:\n        /* \"#utility.yul\":14080:14136   */\n    tag_370:\n        /* \"#utility.yul\":14160:14198   */\n      tag_372\n        /* \"#utility.yul\":14192:14196   */\n      dup3\n        /* \"#utility.yul\":14186:14197   */\n      sload\n        /* \"#utility.yul\":14160:14198   */\n      tag_134\n      jump\t// in\n    tag_372:\n        /* \"#utility.yul\":14245:14312   */\n      tag_373\n        /* \"#utility.yul\":14305:14311   */\n      dup3\n        /* \"#utility.yul\":14297:14303   */\n      dup3\n        /* \"#utility.yul\":14291:14295   */\n      dup6\n        /* \"#utility.yul\":14245:14312   */\n      tag_202\n      jump\t// in\n    tag_373:\n        /* \"#utility.yul\":14339:14340   */\n      0x00\n        /* \"#utility.yul\":14363:14367   */\n      0x20\n        /* \"#utility.yul\":14350:14367   */\n      swap1\n      pop\n        /* \"#utility.yul\":14395:14397   */\n      0x1f\n        /* \"#utility.yul\":14387:14393   */\n      dup4\n        /* \"#utility.yul\":14384:14398   */\n      gt\n        /* \"#utility.yul\":14412:14413   */\n      0x01\n        /* \"#utility.yul\":14407:15025   */\n      dup2\n      eq\n      tag_375\n      jumpi\n        /* \"#utility.yul\":15069:15070   */\n      0x00\n        /* \"#utility.yul\":15086:15092   */\n      dup5\n        /* \"#utility.yul\":15083:15160   */\n      iszero\n      tag_376\n      jumpi\n        /* \"#utility.yul\":15135:15144   */\n      dup3\n        /* \"#utility.yul\":15130:15133   */\n      dup8\n        /* \"#utility.yul\":15126:15145   */\n      add\n        /* \"#utility.yul\":15120:15146   */\n      mload\n        /* \"#utility.yul\":15111:15146   */\n      swap1\n      pop\n        /* \"#utility.yul\":15083:15160   */\n    tag_376:\n        /* \"#utility.yul\":15186:15253   */\n      tag_377\n        /* \"#utility.yul\":15246:15252   */\n      dup6\n        /* \"#utility.yul\":15239:15244   */\n      dup3\n        /* \"#utility.yul\":15186:15253   */\n      tag_205\n      jump\t// in\n    tag_377:\n        /* \"#utility.yul\":15180:15184   */\n      dup7\n        /* \"#utility.yul\":15173:15254   */\n      sstore\n        /* \"#utility.yul\":15042:15264   */\n      pop\n        /* \"#utility.yul\":14377:15264   */\n      jump(tag_374)\n        /* \"#utility.yul\":14407:15025   */\n    tag_375:\n        /* \"#utility.yul\":14459:14463   */\n      0x1f\n        /* \"#utility.yul\":14455:14464   */\n      not\n        /* \"#utility.yul\":14447:14453   */\n      dup5\n        /* \"#utility.yul\":14443:14465   */\n      and\n        /* \"#utility.yul\":14493:14530   */\n      tag_378\n        /* \"#utility.yul\":14525:14529   */\n      dup7\n        /* \"#utility.yul\":14493:14530   */\n      tag_191\n      jump\t// in\n    tag_378:\n        /* \"#utility.yul\":14552:14553   */\n      0x00\n        /* \"#utility.yul\":14566:14774   */\n    tag_379:\n        /* \"#utility.yul\":14580:14587   */\n      dup3\n        /* \"#utility.yul\":14577:14578   */\n      dup2\n        /* \"#utility.yul\":14574:14588   */\n      lt\n        /* \"#utility.yul\":14566:14774   */\n      iszero\n      tag_381\n      jumpi\n        /* \"#utility.yul\":14659:14668   */\n      dup5\n        /* \"#utility.yul\":14654:14657   */\n      dup10\n        /* \"#utility.yul\":14650:14669   */\n      add\n        /* \"#utility.yul\":14644:14670   */\n      mload\n        /* \"#utility.yul\":14636:14642   */\n      dup3\n        /* \"#utility.yul\":14629:14671   */\n      sstore\n        /* \"#utility.yul\":14710:14711   */\n      0x01\n        /* \"#utility.yul\":14702:14708   */\n      dup3\n        /* \"#utility.yul\":14698:14712   */\n      add\n        /* \"#utility.yul\":14688:14712   */\n      swap2\n      pop\n        /* \"#utility.yul\":14757:14759   */\n      0x20\n        /* \"#utility.yul\":14746:14755   */\n      dup6\n        /* \"#utility.yul\":14742:14760   */\n      add\n        /* \"#utility.yul\":14729:14760   */\n      swap5\n      pop\n        /* \"#utility.yul\":14603:14607   */\n      0x20\n        /* \"#utility.yul\":14600:14601   */\n      dup2\n        /* \"#utility.yul\":14596:14608   */\n      add\n        /* \"#utility.yul\":14591:14608   */\n      swap1\n      pop\n        /* \"#utility.yul\":14566:14774   */\n      jump(tag_379)\n    tag_381:\n        /* \"#utility.yul\":14802:14808   */\n      dup7\n        /* \"#utility.yul\":14793:14800   */\n      dup4\n        /* \"#utility.yul\":14790:14809   */\n      lt\n        /* \"#utility.yul\":14787:14966   */\n      iszero\n      tag_382\n      jumpi\n        /* \"#utility.yul\":14860:14869   */\n      dup5\n        /* \"#utility.yul\":14855:14858   */\n      dup10\n        /* \"#utility.yul\":14851:14870   */\n      add\n        /* \"#utility.yul\":14845:14871   */\n      mload\n        /* \"#utility.yul\":14903:14951   */\n      tag_383\n        /* \"#utility.yul\":14945:14949   */\n      0x1f\n        /* \"#utility.yul\":14937:14943   */\n      dup10\n        /* \"#utility.yul\":14933:14950   */\n      and\n        /* \"#utility.yul\":14922:14931   */\n      dup3\n        /* \"#utility.yul\":14903:14951   */\n      tag_204\n      jump\t// in\n    tag_383:\n        /* \"#utility.yul\":14895:14901   */\n      dup4\n        /* \"#utility.yul\":14888:14952   */\n      sstore\n        /* \"#utility.yul\":14810:14966   */\n      pop\n        /* \"#utility.yul\":14787:14966   */\n    tag_382:\n        /* \"#utility.yul\":15012:15013   */\n      0x01\n        /* \"#utility.yul\":15008:15009   */\n      0x02\n        /* \"#utility.yul\":15000:15006   */\n      dup9\n        /* \"#utility.yul\":14996:15010   */\n      mul\n        /* \"#utility.yul\":14992:15014   */\n      add\n        /* \"#utility.yul\":14986:14990   */\n      dup9\n        /* \"#utility.yul\":14979:15015   */\n      sstore\n        /* \"#utility.yul\":14414:15025   */\n      pop\n      pop\n      pop\n        /* \"#utility.yul\":14377:15264   */\n    tag_374:\n      pop\n        /* \"#utility.yul\":13967:15270   */\n      pop\n      pop\n      pop\n        /* \"#utility.yul\":13875:15270   */\n      pop\n      pop\n      jump\t// out\n        /* \"#utility.yul\":15276:15424   */\n    tag_206:\n        /* \"#utility.yul\":15378:15389   */\n      0x00\n        /* \"#utility.yul\":15415:15418   */\n      dup2\n        /* \"#utility.yul\":15400:15418   */\n      swap1\n      pop\n        /* \"#utility.yul\":15276:15424   */\n      swap3\n      swap2\n      pop\n      pop\n      jump\t// out\n        /* \"#utility.yul\":15430:15820   */\n    tag_207:\n        /* \"#utility.yul\":15536:15539   */\n      0x00\n        /* \"#utility.yul\":15564:15603   */\n      tag_386\n        /* \"#utility.yul\":15597:15602   */\n      dup3\n        /* \"#utility.yul\":15564:15603   */\n      tag_170\n      jump\t// in\n    tag_386:\n        /* \"#utility.yul\":15619:15708   */\n      tag_387\n        /* \"#utility.yul\":15701:15707   */\n      dup2\n        /* \"#utility.yul\":15696:15699   */\n      dup6\n        /* \"#utility.yul\":15619:15708   */\n      tag_206\n      jump\t// in\n    tag_387:\n        /* \"#utility.yul\":15612:15708   */\n      swap4\n      pop\n        /* \"#utility.yul\":15717:15782   */\n      tag_388\n        /* \"#utility.yul\":15775:15781   */\n      dup2\n        /* \"#utility.yul\":15770:15773   */\n      dup6\n        /* \"#utility.yul\":15763:15767   */\n      0x20\n        /* \"#utility.yul\":15756:15761   */\n      dup7\n        /* \"#utility.yul\":15752:15768   */\n      add\n        /* \"#utility.yul\":15717:15782   */\n      tag_172\n      jump\t// in\n    tag_388:\n        /* \"#utility.yul\":15807:15813   */\n      dup1\n        /* \"#utility.yul\":15802:15805   */\n      dup5\n        /* \"#utility.yul\":15798:15814   */\n      add\n        /* \"#utility.yul\":15791:15814   */\n      swap2\n      pop\n        /* \"#utility.yul\":15540:15820   */\n      pop\n        /* \"#utility.yul\":15430:15820   */\n      swap3\n      swap2\n      pop\n      pop\n      jump\t// out\n        /* \"#utility.yul\":15826:16101   */\n    tag_119:\n        /* \"#utility.yul\":15958:15961   */\n      0x00\n        /* \"#utility.yul\":15980:16075   */\n      tag_390\n        /* \"#utility.yul\":16071:16074   */\n      dup3\n        /* \"#utility.yul\":16062:16068   */\n      dup5\n        /* \"#utility.yul\":15980:16075   */\n      tag_207\n      jump\t// in\n    tag_390:\n        /* \"#utility.yul\":15973:16075   */\n      swap2\n      pop\n        /* \"#utility.yul\":16092:16095   */\n      dup2\n        /* \"#utility.yul\":16085:16095   */\n      swap1\n      pop\n        /* \"#utility.yul\":15826:16101   */\n      swap3\n      swap2\n      pop\n      pop\n      jump\t// out\n        /* \"#utility.yul\":16107:16541   */\n    tag_208:\n        /* \"#utility.yul\":16196:16201   */\n      0x00\n        /* \"#utility.yul\":16221:16287   */\n      tag_392\n        /* \"#utility.yul\":16237:16286   */\n      tag_393\n        /* \"#utility.yul\":16279:16285   */\n      dup5\n        /* \"#utility.yul\":16237:16286   */\n      tag_164\n      jump\t// in\n    tag_393:\n        /* \"#utility.yul\":16221:16287   */\n      tag_163\n      jump\t// in\n    tag_392:\n        /* \"#utility.yul\":16212:16287   */\n      swap1\n      pop\n        /* \"#utility.yul\":16310:16316   */\n      dup3\n        /* \"#utility.yul\":16303:16308   */\n      dup2\n        /* \"#utility.yul\":16296:16317   */\n      mstore\n        /* \"#utility.yul\":16348:16352   */\n      0x20\n        /* \"#utility.yul\":16341:16346   */\n      dup2\n        /* \"#utility.yul\":16337:16353   */\n      add\n        /* \"#utility.yul\":16386:16389   */\n      dup5\n        /* \"#utility.yul\":16377:16383   */\n      dup5\n        /* \"#utility.yul\":16372:16375   */\n      dup5\n        /* \"#utility.yul\":16368:16384   */\n      add\n        /* \"#utility.yul\":16365:16390   */\n      gt\n        /* \"#utility.yul\":16362:16474   */\n      iszero\n      tag_394\n      jumpi\n        /* \"#utility.yul\":16393:16472   */\n      tag_395\n      tag_159\n      jump\t// in\n    tag_395:\n        /* \"#utility.yul\":16362:16474   */\n    tag_394:\n        /* \"#utility.yul\":16483:16535   */\n      tag_396\n        /* \"#utility.yul\":16528:16534   */\n      dup5\n        /* \"#utility.yul\":16523:16526   */\n      dup3\n        /* \"#utility.yul\":16518:16521   */\n      dup6\n        /* \"#utility.yul\":16483:16535   */\n      tag_172\n      jump\t// in\n    tag_396:\n        /* \"#utility.yul\":16202:16541   */\n      pop\n        /* \"#utility.yul\":16107:16541   */\n      swap4\n      swap3\n      pop\n      pop\n      pop\n      jump\t// out\n        /* \"#utility.yul\":16561:16916   */\n    tag_209:\n        /* \"#utility.yul\":16628:16633   */\n      0x00\n        /* \"#utility.yul\":16677:16680   */\n      dup3\n        /* \"#utility.yul\":16670:16674   */\n      0x1f\n        /* \"#utility.yul\":16662:16668   */\n      dup4\n        /* \"#utility.yul\":16658:16675   */\n      add\n        /* \"#utility.yul\":16654:16681   */\n      slt\n        /* \"#utility.yul\":16644:16766   */\n      tag_398\n      jumpi\n        /* \"#utility.yul\":16685:16764   */\n      tag_399\n      tag_158\n      jump\t// in\n    tag_399:\n        /* \"#utility.yul\":16644:16766   */\n    tag_398:\n        /* \"#utility.yul\":16795:16801   */\n      dup2\n        /* \"#utility.yul\":16789:16802   */\n      mload\n        /* \"#utility.yul\":16820:16910   */\n      tag_400\n        /* \"#utility.yul\":16906:16909   */\n      dup5\n        /* \"#utility.yul\":16898:16904   */\n      dup3\n        /* \"#utility.yul\":16891:16895   */\n      0x20\n        /* \"#utility.yul\":16883:16889   */\n      dup7\n        /* \"#utility.yul\":16879:16896   */\n      add\n        /* \"#utility.yul\":16820:16910   */\n      tag_208\n      jump\t// in\n    tag_400:\n        /* \"#utility.yul\":16811:16910   */\n      swap2\n      pop\n        /* \"#utility.yul\":16634:16916   */\n      pop\n        /* \"#utility.yul\":16561:16916   */\n      swap3\n      swap2\n      pop\n      pop\n      jump\t// out\n        /* \"#utility.yul\":16922:17446   */\n    tag_153:\n        /* \"#utility.yul\":17002:17008   */\n      0x00\n        /* \"#utility.yul\":17051:17053   */\n      0x20\n        /* \"#utility.yul\":17039:17048   */\n      dup3\n        /* \"#utility.yul\":17030:17037   */\n      dup5\n        /* \"#utility.yul\":17026:17049   */\n      sub\n        /* \"#utility.yul\":17022:17054   */\n      slt\n        /* \"#utility.yul\":17019:17138   */\n      iszero\n      tag_402\n      jumpi\n        /* \"#utility.yul\":17057:17136   */\n      tag_403\n      tag_156\n      jump\t// in\n    tag_403:\n        /* \"#utility.yul\":17019:17138   */\n    tag_402:\n        /* \"#utility.yul\":17198:17199   */\n      0x00\n        /* \"#utility.yul\":17187:17196   */\n      dup3\n        /* \"#utility.yul\":17183:17200   */\n      add\n        /* \"#utility.yul\":17177:17201   */\n      mload\n        /* \"#utility.yul\":17228:17246   */\n      0xffffffffffffffff\n        /* \"#utility.yul\":17220:17226   */\n      dup2\n        /* \"#utility.yul\":17217:17247   */\n      gt\n        /* \"#utility.yul\":17214:17331   */\n      iszero\n      tag_404\n      jumpi\n        /* \"#utility.yul\":17250:17329   */\n      tag_405\n      tag_157\n      jump\t// in\n    tag_405:\n        /* \"#utility.yul\":17214:17331   */\n    tag_404:\n        /* \"#utility.yul\":17355:17429   */\n      tag_406\n        /* \"#utility.yul\":17421:17428   */\n      dup5\n        /* \"#utility.yul\":17412:17418   */\n      dup3\n        /* \"#utility.yul\":17401:17410   */\n      dup6\n        /* \"#utility.yul\":17397:17419   */\n      add\n        /* \"#utility.yul\":17355:17429   */\n      tag_209\n      jump\t// in\n    tag_406:\n        /* \"#utility.yul\":17345:17429   */\n      swap2\n      pop\n        /* \"#utility.yul\":17148:17439   */\n      pop\n        /* \"#utility.yul\":16922:17446   */\n      swap3\n      swap2\n      pop\n      pop\n      jump\t// out\n\n    auxdata: 0xa2646970667358221220f0ebc075742ad87ef92d51f569bcb9d226fabd57aa56722795ac4ba155facb9a64736f6c63430008190033\n}\n",
				"bytecode": {
					"linkReferences": {},
					"object": "6080604052348015600e575f80fd5b506111778061001c5f395ff3fe608060405234801561000f575f80fd5b506004361061011f575f3560e01c80638701f8ca116100ab578063bb6a63fa1161006f578063bb6a63fa1461030a578063bca353be14610326578063c19d93fb14610330578063cb6a33f81461034e578063e0819c9a1461037e5761011f565b80638701f8ca146102775780638fda356d1461029557806399b8390a1461029f5780639e7a13ad146102bd578063b6339418146102ee5761011f565b80633a32b549116100f25780633a32b549146101d15780634d26512b146101ef5780634d3eac6e1461020d5780636f760f411461022b5780637fc51178146102475761011f565b806303a4300914610123578063157b95dd1461015357806322f3e2d41461018357806329cd1d96146101a1575b5f80fd5b61013d60048036038101906101389190610961565b61039c565b60405161014a91906109c0565b60405180910390f35b61016d60048036038101906101689190610961565b6103c9565b60405161017a9190610a39565b60405180910390f35b61018b6103d0565b6040516101989190610a73565b60405180910390f35b6101bb60048036038101906101b69190610ab6565b61040b565b6040516101c891906109c0565b60405180910390f35b6101d961042b565b6040516101e69190610a39565b60405180910390f35b6101f7610468565b60405161020491906109c0565b60405180910390f35b610215610470565b60405161022291906109c0565b60405180910390f35b61024560048036038101906102409190610ae1565b6104ac565b005b610261600480360381019061025c9190610961565b610530565b60405161026e91906109c0565b60405180910390f35b61027f610557565b60405161028c9190610a39565b60405180910390f35b61029d610566565b005b6102a7610591565b6040516102b49190610bf2565b60405180910390f35b6102d760048036038101906102d29190610ab6565b6105e7565b6040516102e5929190610c12565b60405180910390f35b61030860048036038101906103039190610ab6565b61069c565b005b610324600480360381019061031f9190610ab6565b6106dd565b005b61032e610706565b005b610338610732565b6040516103459190610cb3565b60405180910390f35b61036860048036038101906103639190610ab6565b610744565b6040516103759190610a73565b60405180910390f35b610386610760565b6040516103939190610a39565b60405180910390f35b6003818051602081018201805184825260208301602085012081835280955050505050505f915090505481565b6060919050565b5f8060018111156103e4576103e3610c40565b5b60045f9054906101000a900460ff16600181111561040557610404610c40565b5b14905090565b6001818154811061041a575f80fd5b905f5260205f20015f915090505481565b60606040518060400160405280601c81526020017f7468697320697320616e2065787465726e616c2066756e6374696f6e00000000815250905090565b5f8054905090565b5f805f90505f600190505b5f5481116104a457808261048f9190610cf9565b9150808061049c90610d2c565b91505061047b565b508091505090565b6002604051806040016040528084815260200183815250908060018154018082558091505060019003905f5260205f2090600202015f909190919091505f820151815f0190816104fc9190610f6d565b506020820151816001015550508060038360405161051a9190611076565b9081526020016040518091039020819055505050565b5f6003826040516105419190611076565b9081526020016040518091039020549050919050565b60606105616107d7565b905090565b5f60045f6101000a81548160ff0219169083600181111561058a57610589610c40565b5b0217905550565b606060018054806020026020016040519081016040528092919081815260200182805480156105dd57602002820191905f5260205f20905b8154815260200190600101908083116105c9575b5050505050905090565b600281815481106105f6575f80fd5b905f5260205f2090600202015f91509050805f01805461061590610da0565b80601f016020809104026020016040519081016040528092919081815260200182805461064190610da0565b801561068c5780601f106106635761010080835404028352916020019161068c565b820191905f5260205f20905b81548152906001019060200180831161066f57829003601f168201915b5050505050908060010154905082565b805f819055507fd3901bd7fefa1987685060dfbfcee387cec06b0e5ef5e0062c1f9aebf38ea3445f546040516106d291906109c0565b60405180910390a150565b600181908060018154018082558091505060019003905f5260205f20015f909190919091505550565b600160045f6101000a81548160ff0219169083600181111561072b5761072a610c40565b5b0217905550565b60045f9054906101000a900460ff1681565b5f815f541115610757576001905061075b565b5f90505b919050565b60603073ffffffffffffffffffffffffffffffffffffffff16633a32b5496040518163ffffffff1660e01b81526004015f60405180830381865afa1580156107aa573d5f803e3d5ffd5b505050506040513d5f823e3d601f19601f820116820180604052508101906107d291906110fa565b905090565b60606040518060400160405280601c81526020017f7468697320697320616e20696e7465726e616c2066756e6374696f6e00000000815250905090565b5f604051905090565b5f80fd5b5f80fd5b5f80fd5b5f80fd5b5f601f19601f8301169050919050565b7f4e487b71000000000000000000000000000000000000000000000000000000005f52604160045260245ffd5b6108738261082d565b810181811067ffffffffffffffff821117156108925761089161083d565b5b80604052505050565b5f6108a4610814565b90506108b0828261086a565b919050565b5f67ffffffffffffffff8211156108cf576108ce61083d565b5b6108d88261082d565b9050602081019050919050565b828183375f83830152505050565b5f610905610900846108b5565b61089b565b90508281526020810184848401111561092157610920610829565b5b61092c8482856108e5565b509392505050565b5f82601f83011261094857610947610825565b5b81356109588482602086016108f3565b91505092915050565b5f602082840312156109765761097561081d565b5b5f82013567ffffffffffffffff81111561099357610992610821565b5b61099f84828501610934565b91505092915050565b5f819050919050565b6109ba816109a8565b82525050565b5f6020820190506109d35f8301846109b1565b92915050565b5f81519050919050565b5f82825260208201905092915050565b8281835e5f83830152505050565b5f610a0b826109d9565b610a1581856109e3565b9350610a258185602086016109f3565b610a2e8161082d565b840191505092915050565b5f6020820190508181035f830152610a518184610a01565b905092915050565b5f8115159050919050565b610a6d81610a59565b82525050565b5f602082019050610a865f830184610a64565b92915050565b610a95816109a8565b8114610a9f575f80fd5b50565b5f81359050610ab081610a8c565b92915050565b5f60208284031215610acb57610aca61081d565b5b5f610ad884828501610aa2565b91505092915050565b5f8060408385031215610af757610af661081d565b5b5f83013567ffffffffffffffff811115610b1457610b13610821565b5b610b2085828601610934565b9250506020610b3185828601610aa2565b9150509250929050565b5f81519050919050565b5f82825260208201905092915050565b5f819050602082019050919050565b610b6d816109a8565b82525050565b5f610b7e8383610b64565b60208301905092915050565b5f602082019050919050565b5f610ba082610b3b565b610baa8185610b45565b9350610bb583610b55565b805f5b83811015610be5578151610bcc8882610b73565b9750610bd783610b8a565b925050600181019050610bb8565b5085935050505092915050565b5f6020820190508181035f830152610c0a8184610b96565b905092915050565b5f6040820190508181035f830152610c2a8185610a01565b9050610c3960208301846109b1565b9392505050565b7f4e487b71000000000000000000000000000000000000000000000000000000005f52602160045260245ffd5b60028110610c7e57610c7d610c40565b5b50565b5f819050610c8e82610c6d565b919050565b5f610c9d82610c81565b9050919050565b610cad81610c93565b82525050565b5f602082019050610cc65f830184610ca4565b92915050565b7f4e487b71000000000000000000000000000000000000000000000000000000005f52601160045260245ffd5b5f610d03826109a8565b9150610d0e836109a8565b9250828201905080821115610d2657610d25610ccc565b5b92915050565b5f610d36826109a8565b91507fffffffffffffffffffffffffffffffffffffffffffffffffffffffffffffffff8203610d6857610d67610ccc565b5b600182019050919050565b7f4e487b71000000000000000000000000000000000000000000000000000000005f52602260045260245ffd5b5f6002820490506001821680610db757607f821691505b602082108103610dca57610dc9610d73565b5b50919050565b5f819050815f5260205f209050919050565b5f6020601f8301049050919050565b5f82821b905092915050565b5f60088302610e2c7fffffffffffffffffffffffffffffffffffffffffffffffffffffffffffffffff82610df1565b610e368683610df1565b95508019841693508086168417925050509392505050565b5f819050919050565b5f610e71610e6c610e67846109a8565b610e4e565b6109a8565b9050919050565b5f819050919050565b610e8a83610e57565b610e9e610e9682610e78565b848454610dfd565b825550505050565b5f90565b610eb2610ea6565b610ebd818484610e81565b505050565b5b81811015610ee057610ed55f82610eaa565b600181019050610ec3565b5050565b601f821115610f2557610ef681610dd0565b610eff84610de2565b81016020851015610f0e578190505b610f22610f1a85610de2565b830182610ec2565b50505b505050565b5f82821c905092915050565b5f610f455f1984600802610f2a565b1980831691505092915050565b5f610f5d8383610f36565b9150826002028217905092915050565b610f76826109d9565b67ffffffffffffffff811115610f8f57610f8e61083d565b5b610f998254610da0565b610fa4828285610ee4565b5f60209050601f831160018114610fd5575f8415610fc3578287015190505b610fcd8582610f52565b865550611034565b601f198416610fe386610dd0565b5f5b8281101561100a57848901518255600182019150602085019450602081019050610fe5565b868310156110275784890151611023601f891682610f36565b8355505b6001600288020188555050505b505050505050565b5f81905092915050565b5f611050826109d9565b61105a818561103c565b935061106a8185602086016109f3565b80840191505092915050565b5f6110818284611046565b915081905092915050565b5f61109e611099846108b5565b61089b565b9050828152602081018484840111156110ba576110b9610829565b5b6110c58482856109f3565b509392505050565b5f82601f8301126110e1576110e0610825565b5b81516110f184826020860161108c565b91505092915050565b5f6020828403121561110f5761110e61081d565b5b5f82015167ffffffffffffffff81111561112c5761112b610821565b5b611138848285016110cd565b9150509291505056fea2646970667358221220f0ebc075742ad87ef92d51f569bcb9d226fabd57aa56722795ac4ba155facb9a64736f6c63430008190033",
					"opcodes": "PUSH1 0x80 PUSH1 0x40 MSTORE CALLVALUE DUP1 ISZERO PUSH1 0xE JUMPI PUSH0 DUP1 REVERT JUMPDEST POP PUSH2 0x1177 DUP1 PUSH2 0x1C PUSH0 CODECOPY PUSH0 RETURN INVALID PUSH1 0x80 PUSH1 0x40 MSTORE CALLVALUE DUP1 ISZERO PUSH2 0xF JUMPI PUSH0 DUP1 REVERT JUMPDEST POP PUSH1 0x4 CALLDATASIZE LT PUSH2 0x11F JUMPI PUSH0 CALLDATALOAD PUSH1 0xE0 SHR DUP1 PUSH4 0x8701F8CA GT PUSH2 0xAB JUMPI DUP1 PUSH4 0xBB6A63FA GT PUSH2 0x6F JUMPI DUP1 PUSH4 0xBB6A63FA EQ PUSH2 0x30A JUMPI DUP1 PUSH4 0xBCA353BE EQ PUSH2 0x326 JUMPI DUP1 PUSH4 0xC19D93FB EQ PUSH2 0x330 JUMPI DUP1 PUSH4 0xCB6A33F8 EQ PUSH2 0x34E JUMPI DUP1 PUSH4 0xE0819C9A EQ PUSH2 0x37E JUMPI PUSH2 0x11F JUMP JUMPDEST DUP1 PUSH4 0x8701F8CA EQ PUSH2 0x277 JUMPI DUP1 PUSH4 0x8FDA356D EQ PUSH2 0x295 JUMPI DUP1 PUSH4 0x99B8390A EQ PUSH2 0x29F JUMPI DUP1 PUSH4 0x9E7A13AD EQ PUSH2 0x2BD JUMPI DUP1 PUSH4 0xB6339418 EQ PUSH2 0x2EE JUMPI PUSH2 0x11F JUMP JUMPDEST DUP1 PUSH4 0x3A32B549 GT PUSH2 0xF2 JUMPI DUP1 PUSH4 0x3A32B549 EQ PUSH2 0x1D1 JUMPI DUP1 PUSH4 0x4D26512B EQ PUSH2 0x1EF JUMPI DUP1 PUSH4 0x4D3EAC6E EQ PUSH2 0x20D JUMPI DUP1 PUSH4 0x6F760F41 EQ PUSH2 0x22B JUMPI DUP1 PUSH4 0x7FC51178 EQ PUSH2 0x247 JUMPI PUSH2 0x11F JUMP JUMPDEST DUP1 PUSH4 0x3A43009 EQ PUSH2 0x123 JUMPI DUP1 PUSH4 0x157B95DD EQ PUSH2 0x153 JUMPI DUP1 PUSH4 0x22F3E2D4 EQ PUSH2 0x183 JUMPI DUP1 PUSH4 0x29CD1D96 EQ PUSH2 0x1A1 JUMPI JUMPDEST PUSH0 DUP1 REVERT JUMPDEST PUSH2 0x13D PUSH1 0x4 DUP1 CALLDATASIZE SUB DUP2 ADD SWAP1 PUSH2 0x138 SWAP2 SWAP1 PUSH2 0x961 JUMP JUMPDEST PUSH2 0x39C JUMP JUMPDEST PUSH1 0x40 MLOAD PUSH2 0x14A SWAP2 SWAP1 PUSH2 0x9C0 JUMP JUMPDEST PUSH1 0x40 MLOAD DUP1 SWAP2 SUB SWAP1 RETURN JUMPDEST PUSH2 0x16D PUSH1 0x4 DUP1 CALLDATASIZE SUB DUP2 ADD SWAP1 PUSH2 0x168 SWAP2 SWAP1 PUSH2 0x961 JUMP JUMPDEST PUSH2 0x3C9 JUMP JUMPDEST PUSH1 0x40 MLOAD PUSH2 0x17A SWAP2 SWAP1 PUSH2 0xA39 JUMP JUMPDEST PUSH1 0x40 MLOAD DUP1 SWAP2 SUB SWAP1 RETURN JUMPDEST PUSH2 0x18B PUSH2 0x3D0 JUMP JUMPDEST PUSH1 0x40 MLOAD PUSH2 0x198 SWAP2 SWAP1 PUSH2 0xA73 JUMP JUMPDEST PUSH1 0x40 MLOAD DUP1 SWAP2 SUB SWAP1 RETURN JUMPDEST PUSH2 0x1BB PUSH1 0x4 DUP1 CALLDATASIZE SUB DUP2 ADD SWAP1 PUSH2 0x1B6 SWAP2 SWAP1 PUSH2 0xAB6 JUMP JUMPDEST PUSH2 0x40B JUMP JUMPDEST PUSH1 0x40 MLOAD PUSH2 0x1C8 SWAP2 SWAP1 PUSH2 0x9C0 JUMP JUMPDEST PUSH1 0x40 MLOAD DUP1 SWAP2 SUB SWAP1 RETURN JUMPDEST PUSH2 0x1D9 PUSH2 0x42B JUMP JUMPDEST PUSH1 0x40 MLOAD PUSH2 0x1E6 SWAP2 SWAP1 PUSH2 0xA39 JUMP JUMPDEST PUSH1 0x40 MLOAD DUP1 SWAP2 SUB SWAP1 RETURN JUMPDEST PUSH2 0x1F7 PUSH2 0x468 JUMP JUMPDEST PUSH1 0x40 MLOAD PUSH2 0x204 SWAP2 SWAP1 PUSH2 0x9C0 JUMP JUMPDEST PUSH1 0x40 MLOAD DUP1 SWAP2 SUB SWAP1 RETURN JUMPDEST PUSH2 0x215 PUSH2 0x470 JUMP JUMPDEST PUSH1 0x40 MLOAD PUSH2 0x222 SWAP2 SWAP1 PUSH2 0x9C0 JUMP JUMPDEST PUSH1 0x40 MLOAD DUP1 SWAP2 SUB SWAP1 RETURN JUMPDEST PUSH2 0x245 PUSH1 0x4 DUP1 CALLDATASIZE SUB DUP2 ADD SWAP1 PUSH2 0x240 SWAP2 SWAP1 PUSH2 0xAE1 JUMP JUMPDEST PUSH2 0x4AC JUMP JUMPDEST STOP JUMPDEST PUSH2 0x261 PUSH1 0x4 DUP1 CALLDATASIZE SUB DUP2 ADD SWAP1 PUSH2 0x25C SWAP2 SWAP1 PUSH2 0x961 JUMP JUMPDEST PUSH2 0x530 JUMP JUMPDEST PUSH1 0x40 MLOAD PUSH2 0x26E SWAP2 SWAP1 PUSH2 0x9C0 JUMP JUMPDEST PUSH1 0x40 MLOAD DUP1 SWAP2 SUB SWAP1 RETURN JUMPDEST PUSH2 0x27F PUSH2 0x557 JUMP JUMPDEST PUSH1 0x40 MLOAD PUSH2 0x28C SWAP2 SWAP1 PUSH2 0xA39 JUMP JUMPDEST PUSH1 0x40 MLOAD DUP1 SWAP2 SUB SWAP1 RETURN JUMPDEST PUSH2 0x29D PUSH2 0x566 JUMP JUMPDEST STOP JUMPDEST PUSH2 0x2A7 PUSH2 0x591 JUMP JUMPDEST PUSH1 0x40 MLOAD PUSH2 0x2B4 SWAP2 SWAP1 PUSH2 0xBF2 JUMP JUMPDEST PUSH1 0x40 MLOAD DUP1 SWAP2 SUB SWAP1 RETURN JUMPDEST PUSH2 0x2D7 PUSH1 0x4 DUP1 CALLDATASIZE SUB DUP2 ADD SWAP1 PUSH2 0x2D2 SWAP2 SWAP1 PUSH2 0xAB6 JUMP JUMPDEST PUSH2 0x5E7 JUMP JUMPDEST PUSH1 0x40 MLOAD PUSH2 0x2E5 SWAP3 SWAP2 SWAP1 PUSH2 0xC12 JUMP JUMPDEST PUSH1 0x40 MLOAD DUP1 SWAP2 SUB SWAP1 RETURN JUMPDEST PUSH2 0x308 PUSH1 0x4 DUP1 CALLDATASIZE SUB DUP2 ADD SWAP1 PUSH2 0x303 SWAP2 SWAP1 PUSH2 0xAB6 JUMP JUMPDEST PUSH2 0x69C JUMP JUMPDEST STOP JUMPDEST PUSH2 0x324 PUSH1 0x4 DUP1 CALLDATASIZE SUB DUP2 ADD SWAP1 PUSH2 0x31F SWAP2 SWAP1 PUSH2 0xAB6 JUMP JUMPDEST PUSH2 0x6DD JUMP JUMPDEST STOP JUMPDEST PUSH2 0x32E PUSH2 0x706 JUMP JUMPDEST STOP JUMPDEST PUSH2 0x338 PUSH2 0x732 JUMP JUMPDEST PUSH1 0x40 MLOAD PUSH2 0x345 SWAP2 SWAP1 PUSH2 0xCB3 JUMP JUMPDEST PUSH1 0x40 MLOAD DUP1 SWAP2 SUB SWAP1 RETURN JUMPDEST PUSH2 0x368 PUSH1 0x4 DUP1 CALLDATASIZE SUB DUP2 ADD SWAP1 PUSH2 0x363 SWAP2 SWAP1 PUSH2 0xAB6 JUMP JUMPDEST PUSH2 0x744 JUMP JUMPDEST PUSH1 0x40 MLOAD PUSH2 0x375 SWAP2 SWAP1 PUSH2 0xA73 JUMP JUMPDEST PUSH1 0x40 MLOAD DUP1 SWAP2 SUB SWAP1 RETURN JUMPDEST PUSH2 0x386 PUSH2 0x760 JUMP JUMPDEST PUSH1 0x40 MLOAD PUSH2 0x393 SWAP2 SWAP1 PUSH2 0xA39 JUMP JUMPDEST PUSH1 0x40 MLOAD DUP1 SWAP2 SUB SWAP1 RETURN JUMPDEST PUSH1 0x3 DUP2 DUP1 MLOAD PUSH1 0x20 DUP2 ADD DUP3 ADD DUP1 MLOAD DUP5 DUP3 MSTORE PUSH1 0x20 DUP4 ADD PUSH1 0x20 DUP6 ADD KECCAK256 DUP2 DUP4 MSTORE DUP1 SWAP6 POP POP POP POP POP POP PUSH0 SWAP2 POP SWAP1 POP SLOAD DUP2 JUMP JUMPDEST PUSH1 0x60 SWAP2 SWAP1 POP JUMP JUMPDEST PUSH0 DUP1 PUSH1 0x1 DUP2 GT ISZERO PUSH2 0x3E4 JUMPI PUSH2 0x3E3 PUSH2 0xC40 JUMP JUMPDEST JUMPDEST PUSH1 0x4 PUSH0 SWAP1 SLOAD SWAP1 PUSH2 0x100 EXP SWAP1 DIV PUSH1 0xFF AND PUSH1 0x1 DUP2 GT ISZERO PUSH2 0x405 JUMPI PUSH2 0x404 PUSH2 0xC40 JUMP JUMPDEST JUMPDEST EQ SWAP1 POP SWAP1 JUMP JUMPDEST PUSH1 0x1 DUP2 DUP2 SLOAD DUP2 LT PUSH2 0x41A JUMPI PUSH0 DUP1 REVERT JUMPDEST SWAP1 PUSH0 MSTORE PUSH1 0x20 PUSH0 KECCAK256 ADD PUSH0 SWAP2 POP SWAP1 POP SLOAD DUP2 JUMP JUMPDEST PUSH1 0x60 PUSH1 0x40 MLOAD DUP1 PUSH1 0x40 ADD PUSH1 0x40 MSTORE DUP1 PUSH1 0x1C DUP2 MSTORE PUSH1 0x20 ADD PUSH32 0x7468697320697320616E2065787465726E616C2066756E6374696F6E00000000 DUP2 MSTORE POP SWAP1 POP SWAP1 JUMP JUMPDEST PUSH0 DUP1 SLOAD SWAP1 POP SWAP1 JUMP JUMPDEST PUSH0 DUP1 PUSH0 SWAP1 POP PUSH0 PUSH1 0x1 SWAP1 POP JUMPDEST PUSH0 SLOAD DUP2 GT PUSH2 0x4A4 JUMPI DUP1 DUP3 PUSH2 0x48F SWAP2 SWAP1 PUSH2 0xCF9 JUMP JUMPDEST SWAP2 POP DUP1 DUP1 PUSH2 0x49C SWAP1 PUSH2 0xD2C JUMP JUMPDEST SWAP2 POP POP PUSH2 0x47B JUMP JUMPDEST POP DUP1 SWAP2 POP POP SWAP1 JUMP JUMPDEST PUSH1 0x2 PUSH1 0x40 MLOAD DUP1 PUSH1 0x40 ADD PUSH1 0x40 MSTORE DUP1 DUP5 DUP2 MSTORE PUSH1 0x20 ADD DUP4 DUP2 MSTORE POP SWAP1 DUP1 PUSH1 0x1 DUP2 SLOAD ADD DUP1 DUP3 SSTORE DUP1 SWAP2 POP POP PUSH1 0x1 SWAP1 SUB SWAP1 PUSH0 MSTORE PUSH1 0x20 PUSH0 KECCAK256 SWAP1 PUSH1 0x2 MUL ADD PUSH0 SWAP1 SWAP2 SWAP1 SWAP2 SWAP1 SWAP2 POP PUSH0 DUP3 ADD MLOAD DUP2 PUSH0 ADD SWAP1 DUP2 PUSH2 0x4FC SWAP2 SWAP1 PUSH2 0xF6D JUMP JUMPDEST POP PUSH1 0x20 DUP3 ADD MLOAD DUP2 PUSH1 0x1 ADD SSTORE POP POP DUP1 PUSH1 0x3 DUP4 PUSH1 0x40 MLOAD PUSH2 0x51A SWAP2 SWAP1 PUSH2 0x1076 JUMP JUMPDEST SWAP1 DUP2 MSTORE PUSH1 0x20 ADD PUSH1 0x40 MLOAD DUP1 SWAP2 SUB SWAP1 KECCAK256 DUP2 SWAP1 SSTORE POP POP POP JUMP JUMPDEST PUSH0 PUSH1 0x3 DUP3 PUSH1 0x40 MLOAD PUSH2 0x541 SWAP2 SWAP1 PUSH2 0x1076 JUMP JUMPDEST SWAP1 DUP2 MSTORE PUSH1 0x20 ADD PUSH1 0x40 MLOAD DUP1 SWAP2 SUB SWAP1 KECCAK256 SLOAD SWAP1 POP SWAP2 SWAP1 POP JUMP JUMPDEST PUSH1 0x60 PUSH2 0x561 PUSH2 0x7D7 JUMP JUMPDEST SWAP1 POP SWAP1 JUMP JUMPDEST PUSH0 PUSH1 0x4 PUSH0 PUSH2 0x100 EXP DUP2 SLOAD DUP2 PUSH1 0xFF MUL NOT AND SWAP1 DUP4 PUSH1 0x1 DUP2 GT ISZERO PUSH2 0x58A JUMPI PUSH2 0x589 PUSH2 0xC40 JUMP JUMPDEST JUMPDEST MUL OR SWAP1 SSTORE POP JUMP JUMPDEST PUSH1 0x60 PUSH1 0x1 DUP1 SLOAD DUP1 PUSH1 0x20 MUL PUSH1 0x20 ADD PUSH1 0x40 MLOAD SWAP1 DUP2 ADD PUSH1 0x40 MSTORE DUP1 SWAP3 SWAP2 SWAP1 DUP2 DUP2 MSTORE PUSH1 0x20 ADD DUP3 DUP1 SLOAD DUP1 ISZERO PUSH2 0x5DD JUMPI PUSH1 0x20 MUL DUP3 ADD SWAP2 SWAP1 PUSH0 MSTORE PUSH1 0x20 PUSH0 KECCAK256 SWAP1 JUMPDEST DUP2 SLOAD DUP2 MSTORE PUSH1 0x20 ADD SWAP1 PUSH1 0x1 ADD SWAP1 DUP1 DUP4 GT PUSH2 0x5C9 JUMPI JUMPDEST POP POP POP POP POP SWAP1 POP SWAP1 JUMP JUMPDEST PUSH1 0x2 DUP2 DUP2 SLOAD DUP2 LT PUSH2 0x5F6 JUMPI PUSH0 DUP1 REVERT JUMPDEST SWAP1 PUSH0 MSTORE PUSH1 0x20 PUSH0 KECCAK256 SWAP1 PUSH1 0x2 MUL ADD PUSH0 SWAP2 POP SWAP1 POP DUP1 PUSH0 ADD DUP1 SLOAD PUSH2 0x615 SWAP1 PUSH2 0xDA0 JUMP JUMPDEST DUP1 PUSH1 0x1F ADD PUSH1 0x20 DUP1 SWAP2 DIV MUL PUSH1 0x20 ADD PUSH1 0x40 MLOAD SWAP1 DUP2 ADD PUSH1 0x40 MSTORE DUP1 SWAP3 SWAP2 SWAP1 DUP2 DUP2 MSTORE PUSH1 0x20 ADD DUP3 DUP1 SLOAD PUSH2 0x641 SWAP1 PUSH2 0xDA0 JUMP JUMPDEST DUP1 ISZERO PUSH2 0x68C JUMPI DUP1 PUSH1 0x1F LT PUSH2 0x663 JUMPI PUSH2 0x100 DUP1 DUP4 SLOAD DIV MUL DUP4 MSTORE SWAP2 PUSH1 0x20 ADD SWAP2 PUSH2 0x68C JUMP JUMPDEST DUP3 ADD SWAP2 SWAP1 PUSH0 MSTORE PUSH1 0x20 PUSH0 KECCAK256 SWAP1 JUMPDEST DUP2 SLOAD DUP2 MSTORE SWAP1 PUSH1 0x1 ADD SWAP1 PUSH1 0x20 ADD DUP1 DUP4 GT PUSH2 0x66F JUMPI DUP3 SWAP1 SUB PUSH1 0x1F AND DUP3 ADD SWAP2 JUMPDEST POP POP POP POP POP SWAP1 DUP1 PUSH1 0x1 ADD SLOAD SWAP1 POP DUP3 JUMP JUMPDEST DUP1 PUSH0 DUP2 SWAP1 SSTORE POP PUSH32 0xD3901BD7FEFA1987685060DFBFCEE387CEC06B0E5EF5E0062C1F9AEBF38EA344 PUSH0 SLOAD PUSH1 0x40 MLOAD PUSH2 0x6D2 SWAP2 SWAP1 PUSH2 0x9C0 JUMP JUMPDEST PUSH1 0x40 MLOAD DUP1 SWAP2 SUB SWAP1 LOG1 POP JUMP JUMPDEST PUSH1 0x1 DUP2 SWAP1 DUP1 PUSH1 0x1 DUP2 SLOAD ADD DUP1 DUP3 SSTORE DUP1 SWAP2 POP POP PUSH1 0x1 SWAP1 SUB SWAP1 PUSH0 MSTORE PUSH1 0x20 PUSH0 KECCAK256 ADD PUSH0 SWAP1 SWAP2 SWAP1 SWAP2 SWAP1 SWAP2 POP SSTORE POP JUMP JUMPDEST PUSH1 0x1 PUSH1 0x4 PUSH0 PUSH2 0x100 EXP DUP2 SLOAD DUP2 PUSH1 0xFF MUL NOT AND SWAP1 DUP4 PUSH1 0x1 DUP2 GT ISZERO PUSH2 0x72B JUMPI PUSH2 0x72A PUSH2 0xC40 JUMP JUMPDEST JUMPDEST MUL OR SWAP1 SSTORE POP JUMP JUMPDEST PUSH1 0x4 PUSH0 SWAP1 SLOAD SWAP1 PUSH2 0x100 EXP SWAP1 DIV PUSH1 0xFF AND DUP2 JUMP JUMPDEST PUSH0 DUP2 PUSH0 SLOAD GT ISZERO PUSH2 0x757 JUMPI PUSH1 0x1 SWAP1 POP PUSH2 0x75B JUMP JUMPDEST PUSH0 SWAP1 POP JUMPDEST SWAP2 SWAP1 POP JUMP JUMPDEST PUSH1 0x60 ADDRESS PUSH20 0xFFFFFFFFFFFFFFFFFFFFFFFFFFFFFFFFFFFFFFFF AND PUSH4 0x3A32B549 PUSH1 0x40 MLOAD DUP2 PUSH4 0xFFFFFFFF AND PUSH1 0xE0 SHL DUP2 MSTORE PUSH1 0x4 ADD PUSH0 PUSH1 0x40 MLOAD DUP1 DUP4 SUB DUP2 DUP7 GAS STATICCALL ISZERO DUP1 ISZERO PUSH2 0x7AA JUMPI RETURNDATASIZE PUSH0 DUP1 RETURNDATACOPY RETURNDATASIZE PUSH0 REVERT JUMPDEST POP POP POP POP PUSH1 0x40 MLOAD RETURNDATASIZE PUSH0 DUP3 RETURNDATACOPY RETURNDATASIZE PUSH1 0x1F NOT PUSH1 0x1F DUP3 ADD AND DUP3 ADD DUP1 PUSH1 0x40 MSTORE POP DUP2 ADD SWAP1 PUSH2 0x7D2 SWAP2 SWAP1 PUSH2 0x10FA JUMP JUMPDEST SWAP1 POP SWAP1 JUMP JUMPDEST PUSH1 0x60 PUSH1 0x40 MLOAD DUP1 PUSH1 0x40 ADD PUSH1 0x40 MSTORE DUP1 PUSH1 0x1C DUP2 MSTORE PUSH1 0x20 ADD PUSH32 0x7468697320697320616E20696E7465726E616C2066756E6374696F6E00000000 DUP2 MSTORE POP SWAP1 POP SWAP1 JUMP JUMPDEST PUSH0 PUSH1 0x40 MLOAD SWAP1 POP SWAP1 JUMP JUMPDEST PUSH0 DUP1 REVERT JUMPDEST PUSH0 DUP1 REVERT JUMPDEST PUSH0 DUP1 REVERT JUMPDEST PUSH0 DUP1 REVERT JUMPDEST PUSH0 PUSH1 0x1F NOT PUSH1 0x1F DUP4 ADD AND SWAP1 POP SWAP2 SWAP1 POP JUMP JUMPDEST PUSH32 0x4E487B7100000000000000000000000000000000000000000000000000000000 PUSH0 MSTORE PUSH1 0x41 PUSH1 0x4 MSTORE PUSH1 0x24 PUSH0 REVERT JUMPDEST PUSH2 0x873 DUP3 PUSH2 0x82D JUMP JUMPDEST DUP2 ADD DUP2 DUP2 LT PUSH8 0xFFFFFFFFFFFFFFFF DUP3 GT OR ISZERO PUSH2 0x892 JUMPI PUSH2 0x891 PUSH2 0x83D JUMP JUMPDEST JUMPDEST DUP1 PUSH1 0x40 MSTORE POP POP POP JUMP JUMPDEST PUSH0 PUSH2 0x8A4 PUSH2 0x814 JUMP JUMPDEST SWAP1 POP PUSH2 0x8B0 DUP3 DUP3 PUSH2 0x86A JUMP JUMPDEST SWAP2 SWAP1 POP JUMP JUMPDEST PUSH0 PUSH8 0xFFFFFFFFFFFFFFFF DUP3 GT ISZERO PUSH2 0x8CF JUMPI PUSH2 0x8CE PUSH2 0x83D JUMP JUMPDEST JUMPDEST PUSH2 0x8D8 DUP3 PUSH2 0x82D JUMP JUMPDEST SWAP1 POP PUSH1 0x20 DUP2 ADD SWAP1 POP SWAP2 SWAP1 POP JUMP JUMPDEST DUP3 DUP2 DUP4 CALLDATACOPY PUSH0 DUP4 DUP4 ADD MSTORE POP POP POP JUMP JUMPDEST PUSH0 PUSH2 0x905 PUSH2 0x900 DUP5 PUSH2 0x8B5 JUMP JUMPDEST PUSH2 0x89B JUMP JUMPDEST SWAP1 POP DUP3 DUP2 MSTORE PUSH1 0x20 DUP2 ADD DUP5 DUP5 DUP5 ADD GT ISZERO PUSH2 0x921 JUMPI PUSH2 0x920 PUSH2 0x829 JUMP JUMPDEST JUMPDEST PUSH2 0x92C DUP5 DUP3 DUP6 PUSH2 0x8E5 JUMP JUMPDEST POP SWAP4 SWAP3 POP POP POP JUMP JUMPDEST PUSH0 DUP3 PUSH1 0x1F DUP4 ADD SLT PUSH2 0x948 JUMPI PUSH2 0x947 PUSH2 0x825 JUMP JUMPDEST JUMPDEST DUP2 CALLDATALOAD PUSH2 0x958 DUP5 DUP3 PUSH1 0x20 DUP7 ADD PUSH2 0x8F3 JUMP JUMPDEST SWAP2 POP POP SWAP3 SWAP2 POP POP JUMP JUMPDEST PUSH0 PUSH1 0x20 DUP3 DUP5 SUB SLT ISZERO PUSH2 0x976 JUMPI PUSH2 0x975 PUSH2 0x81D JUMP JUMPDEST JUMPDEST PUSH0 DUP3 ADD CALLDATALOAD PUSH8 0xFFFFFFFFFFFFFFFF DUP2 GT ISZERO PUSH2 0x993 JUMPI PUSH2 0x992 PUSH2 0x821 JUMP JUMPDEST JUMPDEST PUSH2 0x99F DUP5 DUP3 DUP6 ADD PUSH2 0x934 JUMP JUMPDEST SWAP2 POP POP SWAP3 SWAP2 POP POP JUMP JUMPDEST PUSH0 DUP2 SWAP1 POP SWAP2 SWAP1 POP JUMP JUMPDEST PUSH2 0x9BA DUP2 PUSH2 0x9A8 JUMP JUMPDEST DUP3 MSTORE POP POP JUMP JUMPDEST PUSH0 PUSH1 0x20 DUP3 ADD SWAP1 POP PUSH2 0x9D3 PUSH0 DUP4 ADD DUP5 PUSH2 0x9B1 JUMP JUMPDEST SWAP3 SWAP2 POP POP JUMP JUMPDEST PUSH0 DUP2 MLOAD SWAP1 POP SWAP2 SWAP1 POP JUMP JUMPDEST PUSH0 DUP3 DUP3 MSTORE PUSH1 0x20 DUP3 ADD SWAP1 POP SWAP3 SWAP2 POP POP JUMP JUMPDEST DUP3 DUP2 DUP4 MCOPY PUSH0 DUP4 DUP4 ADD MSTORE POP POP POP JUMP JUMPDEST PUSH0 PUSH2 0xA0B DUP3 PUSH2 0x9D9 JUMP JUMPDEST PUSH2 0xA15 DUP2 DUP6 PUSH2 0x9E3 JUMP JUMPDEST SWAP4 POP PUSH2 0xA25 DUP2 DUP6 PUSH1 0x20 DUP7 ADD PUSH2 0x9F3 JUMP JUMPDEST PUSH2 0xA2E DUP2 PUSH2 0x82D JUMP JUMPDEST DUP5 ADD SWAP2 POP POP SWAP3 SWAP2 POP POP JUMP JUMPDEST PUSH0 PUSH1 0x20 DUP3 ADD SWAP1 POP DUP2 DUP2 SUB PUSH0 DUP4 ADD MSTORE PUSH2 0xA51 DUP2 DUP5 PUSH2 0xA01 JUMP JUMPDEST SWAP1 POP SWAP3 SWAP2 POP POP JUMP JUMPDEST PUSH0 DUP2 ISZERO ISZERO SWAP1 POP SWAP2 SWAP1 POP JUMP JUMPDEST PUSH2 0xA6D DUP2 PUSH2 0xA59 JUMP JUMPDEST DUP3 MSTORE POP POP JUMP JUMPDEST PUSH0 PUSH1 0x20 DUP3 ADD SWAP1 POP PUSH2 0xA86 PUSH0 DUP4 ADD DUP5 PUSH2 0xA64 JUMP JUMPDEST SWAP3 SWAP2 POP POP JUMP JUMPDEST PUSH2 0xA95 DUP2 PUSH2 0x9A8 JUMP JUMPDEST DUP2 EQ PUSH2 0xA9F JUMPI PUSH0 DUP1 REVERT JUMPDEST POP JUMP JUMPDEST PUSH0 DUP2 CALLDATALOAD SWAP1 POP PUSH2 0xAB0 DUP2 PUSH2 0xA8C JUMP JUMPDEST SWAP3 SWAP2 POP POP JUMP JUMPDEST PUSH0 PUSH1 0x20 DUP3 DUP5 SUB SLT ISZERO PUSH2 0xACB JUMPI PUSH2 0xACA PUSH2 0x81D JUMP JUMPDEST JUMPDEST PUSH0 PUSH2 0xAD8 DUP5 DUP3 DUP6 ADD PUSH2 0xAA2 JUMP JUMPDEST SWAP2 POP POP SWAP3 SWAP2 POP POP JUMP JUMPDEST PUSH0 DUP1 PUSH1 0x40 DUP4 DUP6 SUB SLT ISZERO PUSH2 0xAF7 JUMPI PUSH2 0xAF6 PUSH2 0x81D JUMP JUMPDEST JUMPDEST PUSH0 DUP4 ADD CALLDATALOAD PUSH8 0xFFFFFFFFFFFFFFFF DUP2 GT ISZERO PUSH2 0xB14 JUMPI PUSH2 0xB13 PUSH2 0x821 JUMP JUMPDEST JUMPDEST PUSH2 0xB20 DUP6 DUP3 DUP7 ADD PUSH2 0x934 JUMP JUMPDEST SWAP3 POP POP PUSH1 0x20 PUSH2 0xB31 DUP6 DUP3 DUP7 ADD PUSH2 0xAA2 JUMP JUMPDEST SWAP2 POP POP SWAP3 POP SWAP3 SWAP1 POP JUMP JUMPDEST PUSH0 DUP2 MLOAD SWAP1 POP SWAP2 SWAP1 POP JUMP JUMPDEST PUSH0 DUP3 DUP3 MSTORE PUSH1 0x20 DUP3 ADD SWAP1 POP SWAP3 SWAP2 POP POP JUMP JUMPDEST PUSH0 DUP2 SWAP1 POP PUSH1 0x20 DUP3 ADD SWAP1 POP SWAP2 SWAP1 POP JUMP JUMPDEST PUSH2 0xB6D DUP2 PUSH2 0x9A8 JUMP JUMPDEST DUP3 MSTORE POP POP JUMP JUMPDEST PUSH0 PUSH2 0xB7E DUP4 DUP4 PUSH2 0xB64 JUMP JUMPDEST PUSH1 0x20 DUP4 ADD SWAP1 POP SWAP3 SWAP2 POP POP JUMP JUMPDEST PUSH0 PUSH1 0x20 DUP3 ADD SWAP1 POP SWAP2 SWAP1 POP JUMP JUMPDEST PUSH0 PUSH2 0xBA0 DUP3 PUSH2 0xB3B JUMP JUMPDEST PUSH2 0xBAA DUP2 DUP6 PUSH2 0xB45 JUMP JUMPDEST SWAP4 POP PUSH2 0xBB5 DUP4 PUSH2 0xB55 JUMP JUMPDEST DUP1 PUSH0 JUMPDEST DUP4 DUP2 LT ISZERO PUSH2 0xBE5 JUMPI DUP2 MLOAD PUSH2 0xBCC DUP9 DUP3 PUSH2 0xB73 JUMP JUMPDEST SWAP8 POP PUSH2 0xBD7 DUP4 PUSH2 0xB8A JUMP JUMPDEST SWAP3 POP POP PUSH1 0x1 DUP2 ADD SWAP1 POP PUSH2 0xBB8 JUMP JUMPDEST POP DUP6 SWAP4 POP POP POP POP SWAP3 SWAP2 POP POP JUMP JUMPDEST PUSH0 PUSH1 0x20 DUP3 ADD SWAP1 POP DUP2 DUP2 SUB PUSH0 DUP4 ADD MSTORE PUSH2 0xC0A DUP2 DUP5 PUSH2 0xB96 JUMP JUMPDEST SWAP1 POP SWAP3 SWAP2 POP POP JUMP JUMPDEST PUSH0 PUSH1 0x40 DUP3 ADD SWAP1 POP DUP2 DUP2 SUB PUSH0 DUP4 ADD MSTORE PUSH2 0xC2A DUP2 DUP6 PUSH2 0xA01 JUMP JUMPDEST SWAP1 POP PUSH2 0xC39 PUSH1 0x20 DUP4 ADD DUP5 PUSH2 0x9B1 JUMP JUMPDEST SWAP4 SWAP3 POP POP POP JUMP JUMPDEST PUSH32 0x4E487B7100000000000000000000000000000000000000000000000000000000 PUSH0 MSTORE PUSH1 0x21 PUSH1 0x4 MSTORE PUSH1 0x24 PUSH0 REVERT JUMPDEST PUSH1 0x2 DUP2 LT PUSH2 0xC7E JUMPI PUSH2 0xC7D PUSH2 0xC40 JUMP JUMPDEST JUMPDEST POP JUMP JUMPDEST PUSH0 DUP2 SWAP1 POP PUSH2 0xC8E DUP3 PUSH2 0xC6D JUMP JUMPDEST SWAP2 SWAP1 POP JUMP JUMPDEST PUSH0 PUSH2 0xC9D DUP3 PUSH2 0xC81 JUMP JUMPDEST SWAP1 POP SWAP2 SWAP1 POP JUMP JUMPDEST PUSH2 0xCAD DUP2 PUSH2 0xC93 JUMP JUMPDEST DUP3 MSTORE POP POP JUMP JUMPDEST PUSH0 PUSH1 0x20 DUP3 ADD SWAP1 POP PUSH2 0xCC6 PUSH0 DUP4 ADD DUP5 PUSH2 0xCA4 JUMP JUMPDEST SWAP3 SWAP2 POP POP JUMP JUMPDEST PUSH32 0x4E487B7100000000000000000000000000000000000000000000000000000000 PUSH0 MSTORE PUSH1 0x11 PUSH1 0x4 MSTORE PUSH1 0x24 PUSH0 REVERT JUMPDEST PUSH0 PUSH2 0xD03 DUP3 PUSH2 0x9A8 JUMP JUMPDEST SWAP2 POP PUSH2 0xD0E DUP4 PUSH2 0x9A8 JUMP JUMPDEST SWAP3 POP DUP3 DUP3 ADD SWAP1 POP DUP1 DUP3 GT ISZERO PUSH2 0xD26 JUMPI PUSH2 0xD25 PUSH2 0xCCC JUMP JUMPDEST JUMPDEST SWAP3 SWAP2 POP POP JUMP JUMPDEST PUSH0 PUSH2 0xD36 DUP3 PUSH2 0x9A8 JUMP JUMPDEST SWAP2 POP PUSH32 0xFFFFFFFFFFFFFFFFFFFFFFFFFFFFFFFFFFFFFFFFFFFFFFFFFFFFFFFFFFFFFFFF DUP3 SUB PUSH2 0xD68 JUMPI PUSH2 0xD67 PUSH2 0xCCC JUMP JUMPDEST JUMPDEST PUSH1 0x1 DUP3 ADD SWAP1 POP SWAP2 SWAP1 POP JUMP JUMPDEST PUSH32 0x4E487B7100000000000000000000000000000000000000000000000000000000 PUSH0 MSTORE PUSH1 0x22 PUSH1 0x4 MSTORE PUSH1 0x24 PUSH0 REVERT JUMPDEST PUSH0 PUSH1 0x2 DUP3 DIV SWAP1 POP PUSH1 0x1 DUP3 AND DUP1 PUSH2 0xDB7 JUMPI PUSH1 0x7F DUP3 AND SWAP2 POP JUMPDEST PUSH1 0x20 DUP3 LT DUP2 SUB PUSH2 0xDCA JUMPI PUSH2 0xDC9 PUSH2 0xD73 JUMP JUMPDEST JUMPDEST POP SWAP2 SWAP1 POP JUMP JUMPDEST PUSH0 DUP2 SWAP1 POP DUP2 PUSH0 MSTORE PUSH1 0x20 PUSH0 KECCAK256 SWAP1 POP SWAP2 SWAP1 POP JUMP JUMPDEST PUSH0 PUSH1 0x20 PUSH1 0x1F DUP4 ADD DIV SWAP1 POP SWAP2 SWAP1 POP JUMP JUMPDEST PUSH0 DUP3 DUP3 SHL SWAP1 POP SWAP3 SWAP2 POP POP JUMP JUMPDEST PUSH0 PUSH1 0x8 DUP4 MUL PUSH2 0xE2C PUSH32 0xFFFFFFFFFFFFFFFFFFFFFFFFFFFFFFFFFFFFFFFFFFFFFFFFFFFFFFFFFFFFFFFF DUP3 PUSH2 0xDF1 JUMP JUMPDEST PUSH2 0xE36 DUP7 DUP4 PUSH2 0xDF1 JUMP JUMPDEST SWAP6 POP DUP1 NOT DUP5 AND SWAP4 POP DUP1 DUP7 AND DUP5 OR SWAP3 POP POP POP SWAP4 SWAP3 POP POP POP JUMP JUMPDEST PUSH0 DUP2 SWAP1 POP SWAP2 SWAP1 POP JUMP JUMPDEST PUSH0 PUSH2 0xE71 PUSH2 0xE6C PUSH2 0xE67 DUP5 PUSH2 0x9A8 JUMP JUMPDEST PUSH2 0xE4E JUMP JUMPDEST PUSH2 0x9A8 JUMP JUMPDEST SWAP1 POP SWAP2 SWAP1 POP JUMP JUMPDEST PUSH0 DUP2 SWAP1 POP SWAP2 SWAP1 POP JUMP JUMPDEST PUSH2 0xE8A DUP4 PUSH2 0xE57 JUMP JUMPDEST PUSH2 0xE9E PUSH2 0xE96 DUP3 PUSH2 0xE78 JUMP JUMPDEST DUP5 DUP5 SLOAD PUSH2 0xDFD JUMP JUMPDEST DUP3 SSTORE POP POP POP POP JUMP JUMPDEST PUSH0 SWAP1 JUMP JUMPDEST PUSH2 0xEB2 PUSH2 0xEA6 JUMP JUMPDEST PUSH2 0xEBD DUP2 DUP5 DUP5 PUSH2 0xE81 JUMP JUMPDEST POP POP POP JUMP JUMPDEST JUMPDEST DUP2 DUP2 LT ISZERO PUSH2 0xEE0 JUMPI PUSH2 0xED5 PUSH0 DUP3 PUSH2 0xEAA JUMP JUMPDEST PUSH1 0x1 DUP2 ADD SWAP1 POP PUSH2 0xEC3 JUMP JUMPDEST POP POP JUMP JUMPDEST PUSH1 0x1F DUP3 GT ISZERO PUSH2 0xF25 JUMPI PUSH2 0xEF6 DUP2 PUSH2 0xDD0 JUMP JUMPDEST PUSH2 0xEFF DUP5 PUSH2 0xDE2 JUMP JUMPDEST DUP2 ADD PUSH1 0x20 DUP6 LT ISZERO PUSH2 0xF0E JUMPI DUP2 SWAP1 POP JUMPDEST PUSH2 0xF22 PUSH2 0xF1A DUP6 PUSH2 0xDE2 JUMP JUMPDEST DUP4 ADD DUP3 PUSH2 0xEC2 JUMP JUMPDEST POP POP JUMPDEST POP POP POP JUMP JUMPDEST PUSH0 DUP3 DUP3 SHR SWAP1 POP SWAP3 SWAP2 POP POP JUMP JUMPDEST PUSH0 PUSH2 0xF45 PUSH0 NOT DUP5 PUSH1 0x8 MUL PUSH2 0xF2A JUMP JUMPDEST NOT DUP1 DUP4 AND SWAP2 POP POP SWAP3 SWAP2 POP POP JUMP JUMPDEST PUSH0 PUSH2 0xF5D DUP4 DUP4 PUSH2 0xF36 JUMP JUMPDEST SWAP2 POP DUP3 PUSH1 0x2 MUL DUP3 OR SWAP1 POP SWAP3 SWAP2 POP POP JUMP JUMPDEST PUSH2 0xF76 DUP3 PUSH2 0x9D9 JUMP JUMPDEST PUSH8 0xFFFFFFFFFFFFFFFF DUP2 GT ISZERO PUSH2 0xF8F JUMPI PUSH2 0xF8E PUSH2 0x83D JUMP JUMPDEST JUMPDEST PUSH2 0xF99 DUP3 SLOAD PUSH2 0xDA0 JUMP JUMPDEST PUSH2 0xFA4 DUP3 DUP3 DUP6 PUSH2 0xEE4 JUMP JUMPDEST PUSH0 PUSH1 0x20 SWAP1 POP PUSH1 0x1F DUP4 GT PUSH1 0x1 DUP2 EQ PUSH2 0xFD5 JUMPI PUSH0 DUP5 ISZERO PUSH2 0xFC3 JUMPI DUP3 DUP8 ADD MLOAD SWAP1 POP JUMPDEST PUSH2 0xFCD DUP6 DUP3 PUSH2 0xF52 JUMP JUMPDEST DUP7 SSTORE POP PUSH2 0x1034 JUMP JUMPDEST PUSH1 0x1F NOT DUP5 AND PUSH2 0xFE3 DUP7 PUSH2 0xDD0 JUMP JUMPDEST PUSH0 JUMPDEST DUP3 DUP2 LT ISZERO PUSH2 0x100A JUMPI DUP5 DUP10 ADD MLOAD DUP3 SSTORE PUSH1 0x1 DUP3 ADD SWAP2 POP PUSH1 0x20 DUP6 ADD SWAP5 POP PUSH1 0x20 DUP2 ADD SWAP1 POP PUSH2 0xFE5 JUMP JUMPDEST DUP7 DUP4 LT ISZERO PUSH2 0x1027 JUMPI DUP5 DUP10 ADD MLOAD PUSH2 0x1023 PUSH1 0x1F DUP10 AND DUP3 PUSH2 0xF36 JUMP JUMPDEST DUP4 SSTORE POP JUMPDEST PUSH1 0x1 PUSH1 0x2 DUP9 MUL ADD DUP9 SSTORE POP POP POP JUMPDEST POP POP POP POP POP POP JUMP JUMPDEST PUSH0 DUP2 SWAP1 POP SWAP3 SWAP2 POP POP JUMP JUMPDEST PUSH0 PUSH2 0x1050 DUP3 PUSH2 0x9D9 JUMP JUMPDEST PUSH2 0x105A DUP2 DUP6 PUSH2 0x103C JUMP JUMPDEST SWAP4 POP PUSH2 0x106A DUP2 DUP6 PUSH1 0x20 DUP7 ADD PUSH2 0x9F3 JUMP JUMPDEST DUP1 DUP5 ADD SWAP2 POP POP SWAP3 SWAP2 POP POP JUMP JUMPDEST PUSH0 PUSH2 0x1081 DUP3 DUP5 PUSH2 0x1046 JUMP JUMPDEST SWAP2 POP DUP2 SWAP1 POP SWAP3 SWAP2 POP POP JUMP JUMPDEST PUSH0 PUSH2 0x109E PUSH2 0x1099 DUP5 PUSH2 0x8B5 JUMP JUMPDEST PUSH2 0x89B JUMP JUMPDEST SWAP1 POP DUP3 DUP2 MSTORE PUSH1 0x20 DUP2 ADD DUP5 DUP5 DUP5 ADD GT ISZERO PUSH2 0x10BA JUMPI PUSH2 0x10B9 PUSH2 0x829 JUMP JUMPDEST JUMPDEST PUSH2 0x10C5 DUP5 DUP3 DUP6 PUSH2 0x9F3 JUMP JUMPDEST POP SWAP4 SWAP3 POP POP POP JUMP JUMPDEST PUSH0 DUP3 PUSH1 0x1F DUP4 ADD SLT PUSH2 0x10E1 JUMPI PUSH2 0x10E0 PUSH2 0x825 JUMP JUMPDEST JUMPDEST DUP2 MLOAD PUSH2 0x10F1 DUP5 DUP3 PUSH1 0x20 DUP7 ADD PUSH2 0x108C JUMP JUMPDEST SWAP2 POP POP SWAP3 SWAP2 POP POP JUMP JUMPDEST PUSH0 PUSH1 0x20 DUP3 DUP5 SUB SLT ISZERO PUSH2 0x110F JUMPI PUSH2 0x110E PUSH2 0x81D JUMP JUMPDEST JUMPDEST PUSH0 DUP3 ADD MLOAD PUSH8 0xFFFFFFFFFFFFFFFF DUP2 GT ISZERO PUSH2 0x112C JUMPI PUSH2 0x112B PUSH2 0x821 JUMP JUMPDEST JUMPDEST PUSH2 0x1138 DUP5 DUP3 DUP6 ADD PUSH2 0x10CD JUMP JUMPDEST SWAP2 POP POP SWAP3 SWAP2 POP POP JUMP INVALID LOG2 PUSH5 0x6970667358 0x22 SLT KECCAK256 CREATE 0xEB 0xC0 PUSH22 0x742AD87EF92D51F569BCB9D226FABD57AA56722795AC 0x4B LOG1 SSTORE STATICCALL 0xCB SWAP11 PUSH5 0x736F6C6343 STOP ADDMOD NOT STOP CALLER "
				},
				"gasEstimates": {
					"creation": {
						"codeDepositCost": "894200",
						"executionCost": "927",
						"totalCost": "895127"
					},
					"external": {
						"activateContract()": "24473",
						"addPerson(string,uint256)": "infinite",
						"addfavoriteNumber(uint256)": "46843",
						"callInternalFunction()": "infinite",
						"deactivateContract()": "24473",
						"externalFunction()": "infinite",
						"favoriteNumbers(uint256)": "infinite",
						"getfavoriteNumber()": "2477",
						"getfavoriteNumberMap(string)": "infinite",
						"isActive()": "2599",
						"isGreaterThan(uint256)": "2823",
						"nameTofavoriteNumber(string)": "infinite",
						"people(uint256)": "infinite",
						"returnNumbers()": "infinite",
						"state()": "2620",
						"storeNumber(uint256)": "infinite",
						"sumTofavoriteNumber()": "infinite",
						"testExternalFunction()": "infinite",
						"updatdeName(string)": "infinite"
					},
					"internal": {
						"internalFunction()": "infinite"
					}
				},
				"methodIdentifiers": {
					"activateContract()": "8fda356d",
					"addPerson(string,uint256)": "6f760f41",
					"addfavoriteNumber(uint256)": "bb6a63fa",
					"callInternalFunction()": "8701f8ca",
					"deactivateContract()": "bca353be",
					"externalFunction()": "3a32b549",
					"favoriteNumbers(uint256)": "29cd1d96",
					"getfavoriteNumber()": "4d26512b",
					"getfavoriteNumberMap(string)": "7fc51178",
					"isActive()": "22f3e2d4",
					"isGreaterThan(uint256)": "cb6a33f8",
					"nameTofavoriteNumber(string)": "03a43009",
					"people(uint256)": "9e7a13ad",
					"returnNumbers()": "99b8390a",
					"state()": "c19d93fb",
					"storeNumber(uint256)": "b6339418",
					"sumTofavoriteNumber()": "4d3eac6e",
					"testExternalFunction()": "e0819c9a",
					"updatdeName(string)": "157b95dd"
				}
			},
			"storageLayout": {
				"storage": [
					{
						"astId": 3,
						"contract": "simplestorage.sol:simplestorage",
						"label": "favoriteNumber",
						"offset": 0,
						"slot": "0",
						"type": "t_uint256"
					},
					{
						"astId": 6,
						"contract": "simplestorage.sol:simplestorage",
						"label": "favoriteNumbers",
						"offset": 0,
						"slot": "1",
						"type": "t_array(t_uint256)dyn_storage"
					},
					{
						"astId": 15,
						"contract": "simplestorage.sol:simplestorage",
						"label": "people",
						"offset": 0,
						"slot": "2",
						"type": "t_array(t_struct(Person)11_storage)dyn_storage"
					},
					{
						"astId": 19,
						"contract": "simplestorage.sol:simplestorage",
						"label": "nameTofavoriteNumber",
						"offset": 0,
						"slot": "3",
						"type": "t_mapping(t_string_memory_ptr,t_uint256)"
					},
					{
						"astId": 29,
						"contract": "simplestorage.sol:simplestorage",
						"label": "state",
						"offset": 0,
						"slot": "4",
						"type": "t_enum(contractstate)26"
					}
				],
				"types": {
					"t_array(t_struct(Person)11_storage)dyn_storage": {
						"base": "t_struct(Person)11_storage",
						"encoding": "dynamic_array",
						"label": "struct simplestorage.Person[]",
						"numberOfBytes": "32"
					},
					"t_array(t_uint256)dyn_storage": {
						"base": "t_uint256",
						"encoding": "dynamic_array",
						"label": "uint256[]",
						"numberOfBytes": "32"
					},
					"t_enum(contractstate)26": {
						"encoding": "inplace",
						"label": "enum simplestorage.contractstate",
						"numberOfBytes": "1"
					},
					"t_mapping(t_string_memory_ptr,t_uint256)": {
						"encoding": "mapping",
						"key": "t_string_memory_ptr",
						"label": "mapping(string => uint256)",
						"numberOfBytes": "32",
						"value": "t_uint256"
					},
					"t_string_memory_ptr": {
						"encoding": "bytes",
						"label": "string",
						"numberOfBytes": "32"
					},
					"t_string_storage": {
						"encoding": "bytes",
						"label": "string",
						"numberOfBytes": "32"
					},
					"t_struct(Person)11_storage": {
						"encoding": "inplace",
						"label": "struct simplestorage.Person",
						"members": [
							{
								"astId": 8,
								"contract": "simplestorage.sol:simplestorage",
								"label": "name",
								"offset": 0,
								"slot": "0",
								"type": "t_string_storage"
							},
							{
								"astId": 10,
								"contract": "simplestorage.sol:simplestorage",
								"label": "favoriteNumber",
								"offset": 0,
								"slot": "1",
								"type": "t_uint256"
							}
						],
						"numberOfBytes": "64"
					},
					"t_uint256": {
						"encoding": "inplace",
						"label": "uint256",
						"numberOfBytes": "32"
					}
				}
			},
			"userdoc": {
				"kind": "user",
				"methods": {},
				"version": 1
			}
		}
	}
}